8=FIX.4.2|9=68|35=A|34=1|49=CLIENT1|52=20260228-17:59:44.105|56=FIXHUB|98=0|108=30|10=194|8=FIX.4.2|9=122|35=D|34=2|49=CLIENT1|52=20260228-17:59:44.172|56=FIXHUB|11=ORDER-1|21=1|38=100|40=1|54=1|55=AAPL|60=20260228-17:59:44.170|10=174|8=FIX.4.2|9=56|35=0|34=3|49=CLIENT1|52=20260228-18:00:14.905|56=FIXHUB|10=143|8=FIX.4.2|9=56|35=0|34=4|49=CLIENT1|52=20260228-18:00:44.909|56=FIXHUB|10=151|8=FIX.4.2|9=56|35=0|34=5|49=CLIENT1|52=20260228-18:01:14.909|56=FIXHUB|10=150|8=FIX.4.2|9=56|35=0|34=6|49=CLIENT1|52=20260228-18:01:44.917|56=FIXHUB|10=153|8=FIX.4.2|9=56|35=0|34=7|49=CLIENT1|52=20260228-18:02:14.913|56=FIXHUB|10=148|8=FIX.4.2|9=56|35=0|34=8|49=CLIENT1|52=20260228-18:02:44.918|56=FIXHUB|10=157|8=FIX.4.2|9=56|35=0|34=9|49=CLIENT1|52=20260228-18:03:15.105|56=FIXHUB|10=145|8=FIX.4.2|9=57|35=0|34=10|49=CLIENT1|52=20260228-18:03:45.096|56=FIXHUB|10=198|8=FIX.4.2|9=57|35=0|34=11|49=CLIENT1|52=20260228-18:04:15.105|56=FIXHUB|10=188|8=FIX.4.2|9=57|35=0|34=12|49=CLIENT1|52=20260228-18:04:45.906|56=FIXHUB|10=201|8=FIX.4.2|9=57|35=0|34=13|49=CLIENT1|52=20260228-18:05:15.908|56=FIXHUB|10=202|8=FIX.4.2|9=57|35=0|34=14|49=CLIENT1|52=20260228-18:05:45.904|56=FIXHUB|10=202|8=FIX.4.2|9=57|35=0|34=15|49=CLIENT1|52=20260228-18:06:15.905|56=FIXHUB|10=202|8=FIX.4.2|9=57|35=0|34=16|49=CLIENT1|52=20260228-18:06:45.908|56=FIXHUB|10=209|8=FIX.4.2|9=57|35=0|34=17|49=CLIENT1|52=20260228-18:07:15.905|56=FIXHUB|10=205|8=FIX.4.2|9=57|35=0|34=18|49=CLIENT1|52=20260228-18:07:45.908|56=FIXHUB|10=212|8=FIX.4.2|9=57|35=0|34=19|49=CLIENT1|52=20260228-18:08:15.906|56=FIXHUB|10=209|8=FIX.4.2|9=57|35=0|34=20|49=CLIENT1|52=20260228-18:08:45.904|56=FIXHUB|10=202|8=FIX.4.2|9=57|35=0|34=21|49=CLIENT1|52=20260228-18:09:15.907|56=FIXHUB|10=204|8=FIX.4.2|9=57|35=0|34=22|49=CLIENT1|52=20260228-18:09:45.908|56=FIXHUB|10=209|8=FIX.4.2|9=69|35=A|34=23|49=CLIENT1|52=20260228-18:10:53.356|56=FIXHUB|98=0|108=30|10=243|8=FIX.4.2|9=123|35=D|34=24|49=CLIENT1|52=20260228-18:10:53.415|56=FIXHUB|11=ORDER-1|21=1|38=100|40=1|54=1|55=AAPL|60=20260228-18:10:53.414|10=204|8=FIX.4.2|9=57|35=0|34=25|49=CLIENT1|52=20260228-18:11:24.164|56=FIXHUB|10=196|8=FIX.4.2|9=57|35=0|34=26|49=CLIENT1|52=20260228-18:11:54.176|56=FIXHUB|10=203|8=FIX.4.2|9=57|35=0|34=27|49=CLIENT1|52=20260228-18:12:24.351|56=FIXHUB|10=197|8=FIX.4.2|9=57|35=0|34=28|49=CLIENT1|52=20260228-18:12:54.349|56=FIXHUB|10=208|8=FIX.4.2|9=57|35=0|34=29|49=CLIENT1|52=20260228-18:13:24.350|56=FIXHUB|10=199|8=FIX.4.2|9=69|35=A|34=30|49=CLIENT1|52=20260228-18:13:52.591|56=FIXHUB|98=0|108=30|10=244|8=FIX.4.2|9=123|35=D|34=31|49=CLIENT1|52=20260228-18:13:52.652|56=FIXHUB|11=ORDER-1|21=1|38=100|40=1|54=1|55=AAPL|60=20260228-18:13:52.651|10=212|8=FIX.4.2|9=69|35=A|34=32|49=CLIENT1|52=20260228-18:32:12.548|56=FIXHUB|98=0|108=30|10=245|8=FIX.4.2|9=123|35=D|34=33|49=CLIENT1|52=20260228-18:32:12.604|56=FIXHUB|11=ORDER-1|21=1|38=100|40=1|54=1|55=AAPL|60=20260228-18:32:12.601|10=200|8=FIX.4.2|9=69|35=A|34=34|49=CLIENT1|52=20260228-18:32:26.384|56=FIXHUB|98=0|108=30|10=250|8=FIX.4.2|9=123|35=D|34=35|49=CLIENT1|52=20260228-18:32:26.436|56=FIXHUB|11=ORDER-1|21=1|38=100|40=1|54=1|55=AAPL|60=20260228-18:32:26.435|10=220|8=FIX.4.2|9=57|35=0|34=36|49=CLIENT1|52=20260228-18:32:57.180|56=FIXHUB|10=205|8=FIX.4.2|9=57|35=0|34=37|49=CLIENT1|52=20260228-18:33:27.178|56=FIXHUB|10=211|8=FIX.4.2|9=57|35=0|34=38|49=CLIENT1|52=20260228-18:33:57.181|56=FIXHUB|10=209|8=FIX.4.2|9=57|35=0|34=39|49=CLIENT1|52=20260228-18:34:27.182|56=FIXHUB|10=209|8=FIX.4.2|9=57|35=0|34=40|49=CLIENT1|52=20260228-18:34:57.178|56=FIXHUB|10=209|8=FIX.4.2|9=69|35=A|34=41|49=CLIENT1|52=20260228-18:35:07.992|56=FIXHUB|98=0|108=30|10=255|8=FIX.4.2|9=123|35=D|34=42|49=CLIENT1|52=20260228-18:35:08.052|56=FIXHUB|11=ORDER-1|21=1|38=100|40=1|54=1|55=AAPL|60=20260228-18:35:08.051|10=212|8=FIX.4.2|9=69|35=A|34=43|49=CLIENT1|52=20260228-18:35:34.655|56=FIXHUB|98=0|108=30|10=253|8=FIX.4.2|9=123|35=D|34=44|49=CLIENT1|52=20260228-18:35:34.714|56=FIXHUB|11=ORDER-1|21=1|38=100|40=1|54=1|55=AAPL|60=20260228-18:35:34.712|10=221|8=FIX.4.2|9=57|35=0|34=45|49=CLIENT1|52=20260228-18:36:05.453|56=FIXHUB|10=205|8=FIX.4.2|9=57|35=0|34=46|49=CLIENT1|52=20260228-18:36:35.456|56=FIXHUB|10=212|8=FIX.4.2|9=69|35=A|34=47|49=CLIENT1|52=20260228-18:37:01.124|56=FIXHUB|98=0|108=30|10=244|8=FIX.4.2|9=123|35=D|34=48|49=CLIENT1|52=20260228-18:37:01.186|56=FIXHUB|11=ORDER-1|21=1|38=100|40=1|54=1|55=AAPL|60=20260228-18:37:01.185|10=224|8=FIX.4.2|9=57|35=0|34=49|49=CLIENT1|52=20260228-18:37:31.918|56=FIXHUB|10=215|8=FIX.4.2|9=69|35=A|34=50|49=CLIENT1|52=20260228-18:37:44.603|56=FIXHUB|98=0|108=30|10=247|8=FIX.4.2|9=123|35=D|34=51|49=CLIENT1|52=20260228-18:37:44.662|56=FIXHUB|11=ORDER-1|21=1|38=100|40=1|54=1|55=AAPL|60=20260228-18:37:44.659|10=237|8=FIX.4.2|9=57|35=0|34=52|49=CLIENT1|52=20260228-18:38:15.410|56=FIXHUB|10=199|8=FIX.4.2|9=57|35=0|34=53|49=CLIENT1|52=20260228-18:38:45.407|56=FIXHUB|10=209|8=FIX.4.2|9=57|35=0|34=54|49=CLIENT1|52=20260228-18:39:15.413|56=FIXHUB|10=205|8=FIX.4.2|9=57|35=0|34=55|49=CLIENT1|52=20260228-18:39:45.408|56=FIXHUB|10=213|8=FIX.4.2|9=69|35=A|34=56|49=CLIENT1|52=20260228-18:44:45.237|56=FIXHUB|98=0|108=30|10=255|8=FIX.4.2|9=123|35=D|34=57|49=CLIENT1|52=20260228-18:44:45.297|56=FIXHUB|11=ORDER-1|21=1|38=100|40=1|54=1|55=AAPL|60=20260228-18:44:45.295|10=241|8=FIX.4.2|9=69|35=A|34=58|49=CLIENT1|52=20260228-18:45:04.385|56=FIXHUB|98=0|108=30|10=001|8=FIX.4.2|9=123|35=D|34=59|49=CLIENT1|52=20260228-18:45:04.445|56=FIXHUB|11=ORDER-1|21=1|38=100|40=1|54=1|55=AAPL|60=20260228-18:45:04.442|10=224|8=FIX.4.2|9=57|35=0|34=60|49=CLIENT1|52=20260228-18:45:35.191|56=FIXHUB|10=204|8=FIX.4.2|9=57|35=0|34=61|49=CLIENT1|52=20260228-18:46:05.189|56=FIXHUB|10=210|8=FIX.4.2|9=57|35=0|34=62|49=CLIENT1|52=20260228-18:46:35.190|56=FIXHUB|10=206|8=FIX.4.2|9=57|35=0|34=63|49=CLIENT1|52=20260228-18:47:05.189|56=FIXHUB|10=213|8=FIX.4.2|9=57|35=0|34=64|49=CLIENT1|52=20260228-18:47:35.190|56=FIXHUB|10=209|8=FIX.4.2|9=57|35=0|34=65|49=CLIENT1|52=20260228-18:48:05.193|56=FIXHUB|10=211|8=FIX.4.2|9=57|35=0|34=66|49=CLIENT1|52=20260228-18:48:35.192|56=FIXHUB|10=214|8=FIX.4.2|9=57|35=0|34=67|49=CLIENT1|52=20260228-18:49:05.189|56=FIXHUB|10=219|8=FIX.4.2|9=57|35=0|34=68|49=CLIENT1|52=20260228-18:49:35.189|56=FIXHUB|10=223|8=FIX.4.2|9=57|35=0|34=69|49=CLIENT1|52=20260228-18:50:05.188|56=FIXHUB|10=212|8=FIX.4.2|9=57|35=0|34=70|49=CLIENT1|52=20260228-18:50:35.189|56=FIXHUB|10=208|8=FIX.4.2|9=57|35=0|34=71|49=CLIENT1|52=20260228-18:51:05.189|56=FIXHUB|10=207|8=FIX.4.2|9=57|35=0|34=72|49=CLIENT1|52=20260228-18:51:35.189|56=FIXHUB|10=211|8=FIX.4.2|9=57|35=0|34=73|49=CLIENT1|52=20260228-18:52:05.190|56=FIXHUB|10=202|8=FIX.4.2|9=57|35=0|34=74|49=CLIENT1|52=20260228-18:52:35.190|56=FIXHUB|10=206|8=FIX.4.2|9=57|35=0|34=75|49=CLIENT1|52=20260228-18:53:05.189|56=FIXHUB|10=213|8=FIX.4.2|9=57|35=0|34=76|49=CLIENT1|52=20260228-18:53:35.189|56=FIXHUB|10=217|8=FIX.4.2|9=57|35=0|34=77|49=CLIENT1|52=20260228-18:54:05.189|56=FIXHUB|10=216|8=FIX.4.2|9=57|35=0|34=78|49=CLIENT1|52=20260228-18:54:35.189|56=FIXHUB|10=220|8=FIX.4.2|9=57|35=0|34=79|49=CLIENT1|52=20260228-18:55:05.189|56=FIXHUB|10=219|8=FIX.4.2|9=57|35=0|34=80|49=CLIENT1|52=20260228-18:55:35.192|56=FIXHUB|10=208|8=FIX.4.2|9=57|35=0|34=81|49=CLIENT1|52=20260228-18:56:05.189|56=FIXHUB|10=213|8=FIX.4.2|9=57|35=0|34=82|49=CLIENT1|52=20260228-18:56:35.188|56=FIXHUB|10=216|8=FIX.4.2|9=69|35=A|34=83|49=CLIENT1|52=20260228-18:58:24.134|56=FIXHUB|98=0|108=30|10=253|8=FIX.4.2|9=123|35=D|34=84|49=CLIENT1|52=20260228-18:58:24.199|56=FIXHUB|11=ORDER-1|21=1|38=100|40=1|54=1|55=AAPL|60=20260228-18:58:24.197|10=247|8=FIX.4.2|9=57|35=0|34=85|49=CLIENT1|52=20260228-18:58:54.917|56=FIXHUB|10=222|8=FIX.4.2|9=69|35=A|34=86|49=CLIENT1|52=20260228-19:09:24.684|56=FIXHUB|98=0|108=30|10=007|8=FIX.4.2|9=123|35=D|34=87|49=CLIENT1|52=20260228-19:09:24.739|56=FIXHUB|11=ORDER-1|21=1|38=100|40=1|54=1|55=AAPL|60=20260228-19:09:24.738|10=245|8=FIX.4.2|9=57|35=0|34=88|49=CLIENT1|52=20260228-19:09:55.481|56=FIXHUB|10=219|8=FIX.4.2|9=57|35=0|34=89|49=CLIENT1|52=20260228-19:10:25.481|56=FIXHUB|10=209|8=FIX.4.2|9=57|35=0|34=90|49=CLIENT1|52=20260228-19:10:55.477|56=FIXHUB|10=209|8=FIX.4.2|9=57|35=0|34=91|49=CLIENT1|52=20260228-19:11:25.479|56=FIXHUB|10=210|8=FIX.4.2|9=57|35=0|34=92|49=CLIENT1|52=20260228-19:11:55.477|56=FIXHUB|10=212|8=FIX.4.2|9=57|35=0|34=93|49=CLIENT1|52=20260228-19:12:25.477|56=FIXHUB|10=211|8=FIX.4.2|9=57|35=0|34=94|49=CLIENT1|52=20260228-19:12:55.478|56=FIXHUB|10=216|8=FIX.4.2|9=57|35=0|34=95|49=CLIENT1|52=20260228-19:13:25.480|56=FIXHUB|10=208|8=FIX.4.2|9=57|35=0|34=96|49=CLIENT1|52=20260228-19:13:55.489|56=FIXHUB|10=221|8=FIX.4.2|9=57|35=0|34=97|49=CLIENT1|52=20260228-19:14:25.495|56=FIXHUB|10=217|8=FIX.4.2|9=57|35=0|34=98|49=CLIENT1|52=20260228-19:14:55.667|56=FIXHUB|10=222|8=FIX.4.2|9=57|35=0|34=99|49=CLIENT1|52=20260228-19:15:25.667|56=FIXHUB|10=221|8=FIX.4.2|9=58|35=0|34=100|49=CLIENT1|52=20260228-19:15:55.667|56=FIXHUB|10=000|8=FIX.4.2|9=70|35=A|34=101|49=CLIENT1|52=20260228-19:16:25.194|56=FIXHUB|98=0|108=30|10=030|8=FIX.4.2|9=124|35=D|34=102|49=CLIENT1|52=20260228-19:16:25.253|56=FIXHUB|11=ORDER-1|21=1|38=100|40=1|54=1|55=AAPL|60=20260228-19:16:25.251|10=005|8=FIX.4.2|9=58|35=0|34=103|49=CLIENT1|52=20260228-19:16:55.981|56=FIXHUB|10=003|8=FIX.4.2|9=58|35=0|34=104|49=CLIENT1|52=20260228-19:17:25.985|56=FIXHUB|10=006|8=FIX.4.2|9=58|35=0|34=105|49=CLIENT1|52=20260228-19:17:55.980|56=FIXHUB|10=005|8=FIX.4.2|9=70|35=A|34=106|49=CLIENT1|52=20260228-19:18:31.263|56=FIXHUB|98=0|108=30|10=031|8=FIX.4.2|9=124|35=D|34=107|49=CLIENT1|52=20260228-19:18:31.317|56=FIXHUB|11=ORDER-1|21=1|38=100|40=1|54=1|55=AAPL|60=20260228-19:18:31.315|10=010|8=FIX.4.2|9=58|35=0|34=108|49=CLIENT1|52=20260228-19:19:02.060|56=FIXHUB|10=247|