8=FIX.4.2|9=68|35=A|34=1|49=CLIENT1|52=20260228-10:51:49.033|56=FIXHUB|98=0|108=30|10=184|
8=FIX.4.2|9=68|35=A|34=1|49=FIXHUB|52=20260228-10:51:49.091|56=CLIENT1|98=0|108=30|10=188|
8=FIX.4.2|9=56|35=0|34=2|49=FIXHUB|52=20260228-10:52:19.727|56=CLIENT1|10=148|
8=FIX.4.2|9=56|35=0|34=2|49=CLIENT1|52=20260228-10:52:19.729|56=FIXHUB|10=150|
