8=FIX.4.2|9=68|35=A|34=1|49=CLIENT1|52=20260228-10:51:49.033|56=FIXHUB|98=0|108=30|10=184|
8=FIX.4.2|9=68|35=A|34=1|49=FIXHUB|52=20260228-10:51:49.091|56=CLIENT1|98=0|108=30|10=188|
8=FIX.4.2|9=56|35=0|34=2|49=FIXHUB|52=20260228-10:52:19.727|56=CLIENT1|10=148|
8=FIX.4.2|9=56|35=0|34=2|49=CLIENT1|52=20260228-10:52:19.729|56=FIXHUB|10=150|
8=FIX.4.2|9=56|35=0|34=3|49=CLIENT1|52=20260228-10:52:50.007|56=FIXHUB|10=135|
8=FIX.4.2|9=56|35=0|34=3|49=FIXHUB|52=20260228-10:52:50.008|56=CLIENT1|10=136|
8=FIX.4.2|9=56|35=0|34=4|49=CLIENT1|52=20260228-10:53:20.007|56=FIXHUB|10=134|
8=FIX.4.2|9=56|35=0|34=4|49=FIXHUB|52=20260228-10:53:20.009|56=CLIENT1|10=136|
8=FIX.4.2|9=56|35=0|34=5|49=CLIENT1|52=20260228-10:53:50.007|56=FIXHUB|10=138|
8=FIX.4.2|9=56|35=0|34=5|49=FIXHUB|52=20260228-10:53:50.014|56=CLIENT1|10=136|
8=FIX.4.2|9=56|35=0|34=6|49=CLIENT1|52=20260228-10:54:20.008|56=FIXHUB|10=138|
8=FIX.4.2|9=56|35=0|34=6|49=FIXHUB|52=20260228-10:54:20.012|56=CLIENT1|10=133|
8=FIX.4.2|9=56|35=0|34=7|49=CLIENT1|52=20260228-10:54:50.008|56=FIXHUB|10=142|
8=FIX.4.2|9=56|35=0|34=7|49=FIXHUB|52=20260228-10:54:50.010|56=CLIENT1|10=135|
8=FIX.4.2|9=56|35=0|34=8|49=CLIENT1|52=20260228-10:55:20.008|56=FIXHUB|10=141|
8=FIX.4.2|9=56|35=0|34=8|49=FIXHUB|52=20260228-10:55:20.010|56=CLIENT1|10=134|
8=FIX.4.2|9=56|35=0|34=9|49=CLIENT1|52=20260228-10:55:50.008|56=FIXHUB|10=145|
8=FIX.4.2|9=56|35=0|34=9|49=FIXHUB|52=20260228-10:55:50.013|56=CLIENT1|10=141|
8=FIX.4.2|9=57|35=0|34=10|49=CLIENT1|52=20260228-10:56:20.020|56=FIXHUB|10=178|
8=FIX.4.2|9=57|35=0|34=10|49=FIXHUB|52=20260228-10:56:20.023|56=CLIENT1|10=181|
8=FIX.4.2|9=57|35=0|34=11|49=CLIENT1|52=20260228-10:56:50.017|56=FIXHUB|10=188|
8=FIX.4.2|9=57|35=0|34=11|49=FIXHUB|52=20260228-10:56:50.018|56=CLIENT1|10=189|
8=FIX.4.2|9=57|35=0|34=12|49=CLIENT1|52=20260228-10:57:20.025|56=FIXHUB|10=186|
8=FIX.4.2|9=57|35=0|34=12|49=FIXHUB|52=20260228-10:57:20.028|56=CLIENT1|10=189|
8=FIX.4.2|9=57|35=0|34=13|49=FIXHUB|52=20260228-10:57:50.715|56=CLIENT1|10=196|
8=FIX.4.2|9=57|35=0|34=13|49=CLIENT1|52=20260228-10:57:50.718|56=FIXHUB|10=199|
8=FIX.4.2|9=57|35=0|34=14|49=FIXHUB|52=20260228-10:58:20.723|56=CLIENT1|10=194|
8=FIX.4.2|9=57|35=0|34=14|49=CLIENT1|52=20260228-10:58:20.724|56=FIXHUB|10=195|
8=FIX.4.2|9=57|35=0|34=15|49=FIXHUB|52=20260228-10:58:50.718|56=CLIENT1|10=202|
8=FIX.4.2|9=57|35=0|34=15|49=CLIENT1|52=20260228-10:58:50.722|56=FIXHUB|10=197|
8=FIX.4.2|9=57|35=0|34=16|49=FIXHUB|52=20260228-10:59:20.726|56=CLIENT1|10=200|
8=FIX.4.2|9=57|35=0|34=16|49=CLIENT1|52=20260228-10:59:20.732|56=FIXHUB|10=197|
8=FIX.4.2|9=57|35=0|34=17|49=FIXHUB|52=20260228-10:59:50.721|56=CLIENT1|10=199|
8=FIX.4.2|9=57|35=0|34=17|49=CLIENT1|52=20260228-10:59:50.726|56=FIXHUB|10=204|
8=FIX.4.2|9=57|35=0|34=18|49=FIXHUB|52=20260228-11:00:20.725|56=CLIENT1|10=188|
8=FIX.4.2|9=57|35=0|34=18|49=CLIENT1|52=20260228-11:00:20.730|56=FIXHUB|10=184|
8=FIX.4.2|9=57|35=0|34=19|49=CLIENT1|52=20260228-11:00:51.011|56=FIXHUB|10=181|
8=FIX.4.2|9=57|35=0|34=19|49=FIXHUB|52=20260228-11:00:51.013|56=CLIENT1|10=183|
8=FIX.4.2|9=57|35=0|34=20|49=CLIENT1|52=20260228-11:01:21.009|56=FIXHUB|10=178|
8=FIX.4.2|9=57|35=0|34=20|49=FIXHUB|52=20260228-11:01:21.011|56=CLIENT1|10=171|
8=FIX.4.2|9=57|35=0|34=21|49=CLIENT1|52=20260228-11:01:51.019|56=FIXHUB|10=183|
8=FIX.4.2|9=57|35=0|34=21|49=FIXHUB|52=20260228-11:01:51.024|56=CLIENT1|10=179|
8=FIX.4.2|9=57|35=0|34=22|49=CLIENT1|52=20260228-11:02:21.022|56=FIXHUB|10=176|
8=FIX.4.2|9=57|35=0|34=22|49=FIXHUB|52=20260228-11:02:21.023|56=CLIENT1|10=177|
8=FIX.4.2|9=57|35=0|34=23|49=FIXHUB|52=20260228-11:02:51.719|56=CLIENT1|10=193|
8=FIX.4.2|9=57|35=0|34=23|49=CLIENT1|52=20260228-11:02:51.724|56=FIXHUB|10=189|
8=FIX.4.2|9=57|35=0|34=24|49=FIXHUB|52=20260228-11:03:21.721|56=CLIENT1|10=185|
8=FIX.4.2|9=57|35=0|34=24|49=CLIENT1|52=20260228-11:03:21.722|56=FIXHUB|10=186|
8=FIX.4.2|9=57|35=0|34=25|49=FIXHUB|52=20260228-11:03:51.719|56=CLIENT1|10=196|
8=FIX.4.2|9=57|35=0|34=25|49=CLIENT1|52=20260228-11:03:51.722|56=FIXHUB|10=190|
8=FIX.4.2|9=57|35=0|34=26|49=FIXHUB|52=20260228-11:04:21.728|56=CLIENT1|10=195|
8=FIX.4.2|9=57|35=0|34=26|49=CLIENT1|52=20260228-11:04:21.733|56=FIXHUB|10=191|
8=FIX.4.2|9=57|35=0|34=27|49=FIXHUB|52=20260228-11:04:51.721|56=CLIENT1|10=192|
8=FIX.4.2|9=57|35=0|34=27|49=CLIENT1|52=20260228-11:04:52.011|56=FIXHUB|10=185|
8=FIX.4.2|9=57|35=0|34=28|49=FIXHUB|52=20260228-11:05:21.721|56=CLIENT1|10=191|
8=FIX.4.2|9=57|35=0|34=28|49=CLIENT1|52=20260228-11:05:22.014|56=FIXHUB|10=187|
8=FIX.4.2|9=57|35=0|34=29|49=FIXHUB|52=20260228-11:05:51.717|56=CLIENT1|10=200|
8=FIX.4.2|9=57|35=0|34=29|49=CLIENT1|52=20260228-11:05:52.009|56=FIXHUB|10=195|
8=FIX.4.2|9=57|35=0|34=30|49=FIXHUB|52=20260228-11:06:21.727|56=CLIENT1|10=191|
8=FIX.4.2|9=57|35=0|34=30|49=CLIENT1|52=20260228-11:06:22.014|56=FIXHUB|10=181|
8=FIX.4.2|9=57|35=0|34=31|49=FIXHUB|52=20260228-11:06:51.723|56=CLIENT1|10=191|
8=FIX.4.2|9=57|35=0|34=31|49=CLIENT1|52=20260228-11:06:52.019|56=FIXHUB|10=190|
8=FIX.4.2|9=57|35=0|34=32|49=FIXHUB|52=20260228-11:07:21.718|56=CLIENT1|10=194|
8=FIX.4.2|9=57|35=0|34=32|49=CLIENT1|52=20260228-11:07:22.018|56=FIXHUB|10=188|
8=FIX.4.2|9=57|35=0|34=33|49=FIXHUB|52=20260228-11:07:51.726|56=CLIENT1|10=197|
8=FIX.4.2|9=57|35=0|34=33|49=CLIENT1|52=20260228-11:07:53.013|56=FIXHUB|10=188|
8=FIX.4.2|9=57|35=0|34=34|49=FIXHUB|52=20260228-11:08:21.721|56=CLIENT1|10=191|
8=FIX.4.2|9=57|35=0|34=34|49=CLIENT1|52=20260228-11:08:23.022|56=FIXHUB|10=187|
8=FIX.4.2|9=57|35=0|34=35|49=FIXHUB|52=20260228-11:08:51.725|56=CLIENT1|10=199|
8=FIX.4.2|9=57|35=0|34=35|49=CLIENT1|52=20260228-11:08:53.019|56=FIXHUB|10=197|
8=FIX.4.2|9=57|35=0|34=36|49=FIXHUB|52=20260228-11:09:21.720|56=CLIENT1|10=193|
8=FIX.4.2|9=57|35=0|34=36|49=CLIENT1|52=20260228-11:09:23.012|56=FIXHUB|10=189|
8=FIX.4.2|9=57|35=0|34=37|49=FIXHUB|52=20260228-11:09:51.717|56=CLIENT1|10=203|
8=FIX.4.2|9=57|35=0|34=37|49=CLIENT1|52=20260228-11:09:53.022|56=FIXHUB|10=194|
8=FIX.4.2|9=57|35=0|34=38|49=FIXHUB|52=20260228-11:10:21.719|56=CLIENT1|10=195|
8=FIX.4.2|9=57|35=0|34=38|49=CLIENT1|52=20260228-11:10:24.014|56=FIXHUB|10=186|
8=FIX.4.2|9=57|35=0|34=39|49=FIXHUB|52=20260228-11:10:51.720|56=CLIENT1|10=191|
8=FIX.4.2|9=57|35=0|34=39|49=CLIENT1|52=20260228-11:10:54.014|56=FIXHUB|10=190|
8=FIX.4.2|9=57|35=0|34=40|49=FIXHUB|52=20260228-11:11:21.727|56=CLIENT1|10=188|
8=FIX.4.2|9=57|35=0|34=40|49=CLIENT1|52=20260228-11:11:24.015|56=FIXHUB|10=181|
8=FIX.4.2|9=57|35=0|34=41|49=FIXHUB|52=20260228-11:11:51.723|56=CLIENT1|10=188|
8=FIX.4.2|9=57|35=0|34=41|49=CLIENT1|52=20260228-11:11:54.009|56=FIXHUB|10=188|
8=FIX.4.2|9=57|35=0|34=42|49=FIXHUB|52=20260228-11:12:21.717|56=CLIENT1|10=190|
8=FIX.4.2|9=57|35=0|34=42|49=CLIENT1|52=20260228-11:12:24.012|56=FIXHUB|10=181|
8=FIX.4.2|9=57|35=0|34=43|49=FIXHUB|52=20260228-11:12:51.716|56=CLIENT1|10=193|
8=FIX.4.2|9=57|35=0|34=43|49=CLIENT1|52=20260228-11:12:54.012|56=FIXHUB|10=185|
8=FIX.4.2|9=57|35=0|34=44|49=FIXHUB|52=20260228-11:13:21.723|56=CLIENT1|10=190|
8=FIX.4.2|9=57|35=0|34=44|49=CLIENT1|52=20260228-11:13:24.010|56=FIXHUB|10=182|
8=FIX.4.2|9=57|35=0|34=45|49=FIXHUB|52=20260228-11:13:51.724|56=CLIENT1|10=195|
8=FIX.4.2|9=57|35=0|34=45|49=CLIENT1|52=20260228-11:13:54.008|56=FIXHUB|10=193|
8=FIX.4.2|9=57|35=0|34=46|49=FIXHUB|52=20260228-11:14:21.721|56=CLIENT1|10=191|
8=FIX.4.2|9=57|35=0|34=46|49=CLIENT1|52=20260228-11:14:24.008|56=FIXHUB|10=192|
8=FIX.4.2|9=57|35=0|34=47|49=FIXHUB|52=20260228-11:14:51.727|56=CLIENT1|10=201|
8=FIX.4.2|9=57|35=0|34=47|49=CLIENT1|52=20260228-11:14:54.022|56=FIXHUB|10=192|
8=FIX.4.2|9=57|35=0|34=48|49=FIXHUB|52=20260228-11:15:21.722|56=CLIENT1|10=195|
8=FIX.4.2|9=57|35=0|34=48|49=CLIENT1|52=20260228-11:15:24.022|56=FIXHUB|10=191|
8=FIX.4.2|9=57|35=0|34=49|49=FIXHUB|52=20260228-11:15:51.724|56=CLIENT1|10=201|
8=FIX.4.2|9=57|35=0|34=49|49=CLIENT1|52=20260228-11:15:55.007|56=FIXHUB|10=199|
8=FIX.4.2|9=57|35=0|34=50|49=FIXHUB|52=20260228-11:16:21.723|56=CLIENT1|10=190|
8=FIX.4.2|9=57|35=0|34=50|49=CLIENT1|52=20260228-11:16:25.013|56=FIXHUB|10=186|
8=FIX.4.2|9=57|35=0|34=51|49=FIXHUB|52=20260228-11:16:51.728|56=CLIENT1|10=199|
8=FIX.4.2|9=57|35=0|34=51|49=CLIENT1|52=20260228-11:16:55.009|56=FIXHUB|10=195|
8=FIX.4.2|9=57|35=0|34=52|49=FIXHUB|52=20260228-11:17:21.730|56=CLIENT1|10=191|
8=FIX.4.2|9=57|35=0|34=52|49=CLIENT1|52=20260228-11:17:25.023|56=FIXHUB|10=190|
8=FIX.4.2|9=57|35=0|34=53|49=FIXHUB|52=20260228-11:17:51.723|56=CLIENT1|10=197|
8=FIX.4.2|9=57|35=0|34=53|49=CLIENT1|52=20260228-11:17:55.022|56=FIXHUB|10=193|
8=FIX.4.2|9=57|35=0|34=54|49=FIXHUB|52=20260228-11:18:21.723|56=CLIENT1|10=196|
8=FIX.4.2|9=57|35=0|34=54|49=CLIENT1|52=20260228-11:18:26.027|56=FIXHUB|10=198|
8=FIX.4.2|9=57|35=0|34=55|49=FIXHUB|52=20260228-11:18:51.726|56=CLIENT1|10=203|
8=FIX.4.2|9=57|35=0|34=55|49=CLIENT1|52=20260228-11:18:57.007|56=FIXHUB|10=201|
8=FIX.4.2|9=57|35=0|34=56|49=FIXHUB|52=20260228-11:19:21.718|56=CLIENT1|10=203|
8=FIX.4.2|9=57|35=0|34=56|49=CLIENT1|52=20260228-11:19:27.022|56=FIXHUB|10=197|
8=FIX.4.2|9=57|35=0|34=57|49=FIXHUB|52=20260228-11:19:51.723|56=CLIENT1|10=203|
8=FIX.4.2|9=57|35=0|34=57|49=CLIENT1|52=20260228-11:19:58.022|56=FIXHUB|10=202|
8=FIX.4.2|9=57|35=0|34=58|49=FIXHUB|52=20260228-11:20:21.722|56=CLIENT1|10=192|
8=FIX.4.2|9=57|35=0|34=58|49=CLIENT1|52=20260228-11:20:29.027|56=FIXHUB|10=198|
8=FIX.4.2|9=57|35=0|34=59|49=FIXHUB|52=20260228-11:20:51.727|56=CLIENT1|10=201|
8=FIX.4.2|9=57|35=0|34=59|49=CLIENT1|52=20260228-11:21:00.017|56=FIXHUB|10=188|
8=FIX.4.2|9=57|35=0|34=60|49=FIXHUB|52=20260228-11:21:21.727|56=CLIENT1|10=191|
8=FIX.4.2|9=57|35=0|34=60|49=CLIENT1|52=20260228-11:21:30.014|56=FIXHUB|10=180|
8=FIX.4.2|9=57|35=0|34=61|49=FIXHUB|52=20260228-11:21:52.717|56=CLIENT1|10=195|
8=FIX.4.2|9=57|35=0|34=61|49=CLIENT1|52=20260228-11:22:00.020|56=FIXHUB|10=176|
8=FIX.4.2|9=57|35=0|34=62|49=FIXHUB|52=20260228-11:22:22.719|56=CLIENT1|10=196|
8=FIX.4.2|9=57|35=0|34=62|49=CLIENT1|52=20260228-11:22:31.009|56=FIXHUB|10=188|
8=FIX.4.2|9=57|35=0|34=63|49=FIXHUB|52=20260228-11:22:52.723|56=CLIENT1|10=195|
8=FIX.4.2|9=57|35=0|34=63|49=CLIENT1|52=20260228-11:23:01.008|56=FIXHUB|10=186|
8=FIX.4.2|9=57|35=0|34=64|49=FIXHUB|52=20260228-11:23:22.717|56=CLIENT1|10=197|
8=FIX.4.2|9=57|35=0|34=64|49=CLIENT1|52=20260228-11:23:31.012|56=FIXHUB|10=185|
8=FIX.4.2|9=57|35=0|34=65|49=FIXHUB|52=20260228-11:23:52.727|56=CLIENT1|10=202|
8=FIX.4.2|9=57|35=0|34=65|49=CLIENT1|52=20260228-11:24:01.011|56=FIXHUB|10=183|
8=FIX.4.2|9=57|35=0|34=66|49=FIXHUB|52=20260228-11:24:22.727|56=CLIENT1|10=201|
8=FIX.4.2|9=57|35=0|34=66|49=CLIENT1|52=20260228-11:24:31.012|56=FIXHUB|10=188|
8=FIX.4.2|9=57|35=0|34=67|49=FIXHUB|52=20260228-11:24:52.725|56=CLIENT1|10=203|
8=FIX.4.2|9=57|35=0|34=67|49=CLIENT1|52=20260228-11:25:01.013|56=FIXHUB|10=188|
8=FIX.4.2|9=57|35=0|34=68|49=FIXHUB|52=20260228-11:25:22.724|56=CLIENT1|10=201|
8=FIX.4.2|9=57|35=0|34=68|49=CLIENT1|52=20260228-11:25:31.020|56=FIXHUB|10=190|
8=FIX.4.2|9=57|35=0|34=69|49=FIXHUB|52=20260228-11:25:52.717|56=CLIENT1|10=207|
8=FIX.4.2|9=57|35=0|34=69|49=CLIENT1|52=20260228-11:26:01.016|56=FIXHUB|10=194|
8=FIX.4.2|9=57|35=0|34=70|49=FIXHUB|52=20260228-11:26:22.719|56=CLIENT1|10=199|
8=FIX.4.2|9=57|35=0|34=70|49=CLIENT1|52=20260228-11:26:31.012|56=FIXHUB|10=185|
8=FIX.4.2|9=57|35=0|34=71|49=FIXHUB|52=20260228-11:26:52.717|56=CLIENT1|10=201|
8=FIX.4.2|9=57|35=0|34=71|49=CLIENT1|52=20260228-11:27:01.012|56=FIXHUB|10=184|
8=FIX.4.2|9=57|35=0|34=72|49=FIXHUB|52=20260228-11:27:22.716|56=CLIENT1|10=199|
8=FIX.4.2|9=57|35=0|34=72|49=CLIENT1|52=20260228-11:27:31.013|56=FIXHUB|10=189|
8=FIX.4.2|9=57|35=0|34=73|49=FIXHUB|52=20260228-11:27:52.723|56=CLIENT1|10=201|
8=FIX.4.2|9=57|35=0|34=73|49=CLIENT1|52=20260228-11:28:01.020|56=FIXHUB|10=186|
8=FIX.4.2|9=57|35=0|34=74|49=FIXHUB|52=20260228-11:28:22.725|56=CLIENT1|10=202|
8=FIX.4.2|9=57|35=0|34=74|49=CLIENT1|52=20260228-11:28:31.018|56=FIXHUB|10=197|
8=FIX.4.2|9=57|35=0|34=75|49=FIXHUB|52=20260228-11:28:52.729|56=CLIENT1|10=210|
8=FIX.4.2|9=57|35=0|34=75|49=CLIENT1|52=20260228-11:29:01.010|56=FIXHUB|10=188|
8=FIX.4.2|9=57|35=0|34=76|49=FIXHUB|52=20260228-11:29:22.725|56=CLIENT1|10=205|
8=FIX.4.2|9=57|35=0|34=76|49=CLIENT1|52=20260228-11:29:31.009|56=FIXHUB|10=200|
8=FIX.4.2|9=57|35=0|34=77|49=FIXHUB|52=20260228-11:29:52.722|56=CLIENT1|10=206|
8=FIX.4.2|9=57|35=0|34=77|49=CLIENT1|52=20260228-11:30:01.013|56=FIXHUB|10=185|
8=FIX.4.2|9=57|35=0|34=78|49=FIXHUB|52=20260228-11:30:22.727|56=CLIENT1|10=201|
8=FIX.4.2|9=57|35=0|34=78|49=CLIENT1|52=20260228-11:30:31.021|56=FIXHUB|10=188|
8=FIX.4.2|9=57|35=0|34=79|49=FIXHUB|52=20260228-11:30:52.724|56=CLIENT1|10=202|
8=FIX.4.2|9=57|35=0|34=79|49=CLIENT1|52=20260228-11:31:01.020|56=FIXHUB|10=186|
8=FIX.4.2|9=57|35=0|34=80|49=FIXHUB|52=20260228-11:31:22.727|56=CLIENT1|10=195|
8=FIX.4.2|9=57|35=0|34=80|49=CLIENT1|52=20260228-11:31:32.009|56=FIXHUB|10=189|
8=FIX.4.2|9=57|35=0|34=81|49=FIXHUB|52=20260228-11:31:53.716|56=CLIENT1|10=198|
8=FIX.4.2|9=57|35=0|34=81|49=CLIENT1|52=20260228-11:32:02.011|56=FIXHUB|10=181|
8=FIX.4.2|9=57|35=0|34=82|49=FIXHUB|52=20260228-11:32:23.717|56=CLIENT1|10=198|
8=FIX.4.2|9=57|35=0|34=82|49=CLIENT1|52=20260228-11:32:32.009|56=FIXHUB|10=192|
8=FIX.4.2|9=57|35=0|34=83|49=FIXHUB|52=20260228-11:32:53.723|56=CLIENT1|10=199|
8=FIX.4.2|9=57|35=0|34=83|49=CLIENT1|52=20260228-11:33:02.023|56=FIXHUB|10=187|
8=FIX.4.2|9=57|35=0|34=84|49=FIXHUB|52=20260228-11:33:23.719|56=CLIENT1|10=203|
8=FIX.4.2|9=57|35=0|34=84|49=CLIENT1|52=20260228-11:33:32.017|56=FIXHUB|10=194|
8=FIX.4.2|9=57|35=0|34=85|49=FIXHUB|52=20260228-11:33:53.720|56=CLIENT1|10=199|
8=FIX.4.2|9=57|35=0|34=85|49=CLIENT1|52=20260228-11:34:02.017|56=FIXHUB|10=193|
8=FIX.4.2|9=57|35=0|34=86|49=FIXHUB|52=20260228-11:34:23.722|56=CLIENT1|10=200|
8=FIX.4.2|9=57|35=0|34=86|49=CLIENT1|52=20260228-11:34:32.022|56=FIXHUB|10=193|
8=FIX.4.2|9=57|35=0|34=87|49=FIXHUB|52=20260228-11:34:53.718|56=CLIENT1|10=209|
8=FIX.4.2|9=57|35=0|34=87|49=CLIENT1|52=20260228-11:35:02.013|56=FIXHUB|10=192|
8=FIX.4.2|9=57|35=0|34=88|49=FIXHUB|52=20260228-11:35:23.715|56=CLIENT1|10=205|
8=FIX.4.2|9=57|35=0|34=88|49=CLIENT1|52=20260228-11:35:32.010|56=FIXHUB|10=193|
8=FIX.4.2|9=57|35=0|34=89|49=FIXHUB|52=20260228-11:35:53.717|56=CLIENT1|10=211|
8=FIX.4.2|9=57|35=0|34=89|49=CLIENT1|52=20260228-11:36:02.010|56=FIXHUB|10=192|
8=FIX.4.2|9=57|35=0|34=90|49=FIXHUB|52=20260228-11:36:23.729|56=CLIENT1|10=204|
8=FIX.4.2|9=57|35=0|34=90|49=CLIENT1|52=20260228-11:36:32.018|56=FIXHUB|10=195|
8=FIX.4.2|9=57|35=0|34=91|49=FIXHUB|52=20260228-11:36:53.728|56=CLIENT1|10=207|
8=FIX.4.2|9=57|35=0|34=91|49=CLIENT1|52=20260228-11:37:02.013|56=FIXHUB|10=189|
8=FIX.4.2|9=57|35=0|34=92|49=FIXHUB|52=20260228-11:37:23.724|56=CLIENT1|10=202|
8=FIX.4.2|9=57|35=0|34=92|49=CLIENT1|52=20260228-11:37:32.008|56=FIXHUB|10=197|
8=FIX.4.2|9=57|35=0|34=93|49=FIXHUB|52=20260228-11:37:53.723|56=CLIENT1|10=205|
8=FIX.4.2|9=57|35=0|34=93|49=CLIENT1|52=20260228-11:38:02.014|56=FIXHUB|10=193|
8=FIX.4.2|9=57|35=0|34=94|49=FIXHUB|52=20260228-11:38:23.723|56=CLIENT1|10=204|
8=FIX.4.2|9=57|35=0|34=94|49=CLIENT1|52=20260228-11:38:32.007|56=FIXHUB|10=199|
8=FIX.4.2|9=57|35=0|34=95|49=FIXHUB|52=20260228-11:38:53.723|56=CLIENT1|10=208|
8=FIX.4.2|9=57|35=0|34=95|49=CLIENT1|52=20260228-11:39:02.009|56=FIXHUB|10=200|
8=FIX.4.2|9=57|35=0|34=96|49=FIXHUB|52=20260228-11:39:23.723|56=CLIENT1|10=207|
8=FIX.4.2|9=57|35=0|34=96|49=CLIENT1|52=20260228-11:39:32.008|56=FIXHUB|10=203|
8=FIX.4.2|9=57|35=0|34=97|49=FIXHUB|52=20260228-11:39:53.724|56=CLIENT1|10=212|
8=FIX.4.2|9=57|35=0|34=97|49=CLIENT1|52=20260228-11:40:02.008|56=FIXHUB|10=193|
8=FIX.4.2|9=57|35=0|34=98|49=FIXHUB|52=20260228-11:40:23.723|56=CLIENT1|10=201|
8=FIX.4.2|9=57|35=0|34=98|49=CLIENT1|52=20260228-11:40:32.009|56=FIXHUB|10=198|
8=FIX.4.2|9=57|35=0|34=99|49=FIXHUB|52=20260228-11:40:53.723|56=CLIENT1|10=205|
8=FIX.4.2|9=57|35=0|34=99|49=CLIENT1|52=20260228-11:41:02.008|56=FIXHUB|10=196|
8=FIX.4.2|9=58|35=0|34=100|49=FIXHUB|52=20260228-11:41:23.725|56=CLIENT1|10=237|
8=FIX.4.2|9=58|35=0|34=100|49=CLIENT1|52=20260228-11:41:32.011|56=FIXHUB|10=225|
8=FIX.4.2|9=58|35=0|34=101|49=FIXHUB|52=20260228-11:41:53.728|56=CLIENT1|10=244|
8=FIX.4.2|9=58|35=0|34=101|49=CLIENT1|52=20260228-11:42:02.020|56=FIXHUB|10=224|
8=FIX.4.2|9=58|35=0|34=102|49=FIXHUB|52=20260228-11:42:24.728|56=CLIENT1|10=244|
8=FIX.4.2|9=58|35=0|34=102|49=CLIENT1|52=20260228-11:42:32.027|56=FIXHUB|10=235|
8=FIX.4.2|9=58|35=0|34=103|49=FIXHUB|52=20260228-11:42:54.726|56=CLIENT1|10=246|
8=FIX.4.2|9=58|35=0|34=103|49=CLIENT1|52=20260228-11:43:03.010|56=FIXHUB|10=227|
8=FIX.4.2|9=58|35=0|34=104|49=FIXHUB|52=20260228-11:43:24.719|56=CLIENT1|10=247|
8=FIX.4.2|9=58|35=0|34=104|49=CLIENT1|52=20260228-11:43:33.021|56=FIXHUB|10=233|
8=FIX.4.2|9=58|35=0|34=105|49=FIXHUB|52=20260228-11:43:54.726|56=CLIENT1|10=249|
8=FIX.4.2|9=58|35=0|34=105|49=CLIENT1|52=20260228-11:44:04.013|56=FIXHUB|10=234|
8=FIX.4.2|9=58|35=0|34=106|49=FIXHUB|52=20260228-11:44:24.720|56=CLIENT1|10=242|
8=FIX.4.2|9=58|35=0|34=106|49=CLIENT1|52=20260228-11:44:34.013|56=FIXHUB|10=238|
8=FIX.4.2|9=58|35=0|34=107|49=FIXHUB|52=20260228-11:44:54.725|56=CLIENT1|10=251|
8=FIX.4.2|9=58|35=0|34=107|49=CLIENT1|52=20260228-11:45:04.013|56=FIXHUB|10=237|
8=FIX.4.2|9=58|35=0|34=108|49=FIXHUB|52=20260228-11:45:24.716|56=CLIENT1|10=250|
8=FIX.4.2|9=58|35=0|34=108|49=CLIENT1|52=20260228-11:45:34.011|56=FIXHUB|10=239|
8=FIX.4.2|9=58|35=0|34=109|49=FIXHUB|52=20260228-11:45:54.718|56=CLIENT1|10=000|
8=FIX.4.2|9=58|35=0|34=109|49=CLIENT1|52=20260228-11:46:04.010|56=FIXHUB|10=237|
8=FIX.4.2|9=58|35=0|34=110|49=FIXHUB|52=20260228-11:46:24.728|56=CLIENT1|10=247|
8=FIX.4.2|9=58|35=0|34=110|49=CLIENT1|52=20260228-11:46:34.014|56=FIXHUB|10=236|
8=FIX.4.2|9=58|35=0|34=111|49=FIXHUB|52=20260228-11:46:54.720|56=CLIENT1|10=243|
8=FIX.4.2|9=58|35=0|34=111|49=CLIENT1|52=20260228-11:47:04.022|56=FIXHUB|10=234|
8=FIX.4.2|9=58|35=0|34=112|49=FIXHUB|52=20260228-11:47:24.716|56=CLIENT1|10=247|
8=FIX.4.2|9=58|35=0|34=112|49=CLIENT1|52=20260228-11:47:34.020|56=FIXHUB|10=236|
8=FIX.4.2|9=58|35=0|34=113|49=FIXHUB|52=20260228-11:47:54.718|56=CLIENT1|10=253|
8=FIX.4.2|9=58|35=0|34=113|49=CLIENT1|52=20260228-11:48:04.018|56=FIXHUB|10=242|
8=FIX.4.2|9=58|35=0|34=114|49=FIXHUB|52=20260228-11:48:24.729|56=CLIENT1|10=254|
8=FIX.4.2|9=58|35=0|34=114|49=CLIENT1|52=20260228-11:48:34.019|56=FIXHUB|10=247|
8=FIX.4.2|9=58|35=0|34=115|49=FIXHUB|52=20260228-11:48:55.718|56=CLIENT1|10=001|
8=FIX.4.2|9=58|35=0|34=115|49=CLIENT1|52=20260228-11:49:04.013|56=FIXHUB|10=240|
8=FIX.4.2|9=58|35=0|34=116|49=FIXHUB|52=20260228-11:49:25.721|56=CLIENT1|10=250|
8=FIX.4.2|9=58|35=0|34=116|49=CLIENT1|52=20260228-11:49:34.013|56=FIXHUB|10=244|
8=FIX.4.2|9=58|35=0|34=117|49=FIXHUB|52=20260228-11:49:55.723|56=CLIENT1|10=000|
8=FIX.4.2|9=58|35=0|34=117|49=CLIENT1|52=20260228-11:50:04.010|56=FIXHUB|10=231|
8=FIX.4.2|9=58|35=0|34=118|49=FIXHUB|52=20260228-11:50:25.715|56=CLIENT1|10=247|
8=FIX.4.2|9=58|35=0|34=118|49=CLIENT1|52=20260228-11:50:34.021|56=FIXHUB|10=237|
8=FIX.4.2|9=58|35=0|34=119|49=FIXHUB|52=20260228-11:50:55.715|56=CLIENT1|10=251|
8=FIX.4.2|9=58|35=0|34=119|49=CLIENT1|52=20260228-11:51:04.021|56=FIXHUB|10=236|
8=FIX.4.2|9=58|35=0|34=120|49=FIXHUB|52=20260228-11:51:25.725|56=CLIENT1|10=242|
8=FIX.4.2|9=58|35=0|34=120|49=CLIENT1|52=20260228-11:51:34.021|56=FIXHUB|10=231|
8=FIX.4.2|9=58|35=0|34=121|49=FIXHUB|52=20260228-11:51:55.716|56=CLIENT1|10=246|
8=FIX.4.2|9=58|35=0|34=121|49=CLIENT1|52=20260228-11:52:05.009|56=FIXHUB|10=237|
8=FIX.4.2|9=58|35=0|34=122|49=FIXHUB|52=20260228-11:52:25.729|56=CLIENT1|10=249|
8=FIX.4.2|9=58|35=0|34=122|49=CLIENT1|52=20260228-11:52:35.012|56=FIXHUB|10=235|
8=FIX.4.2|9=58|35=0|34=123|49=FIXHUB|52=20260228-11:52:55.729|56=CLIENT1|10=253|
8=FIX.4.2|9=58|35=0|34=123|49=CLIENT1|52=20260228-11:53:05.022|56=FIXHUB|10=235|
8=FIX.4.2|9=58|35=0|34=124|49=FIXHUB|52=20260228-11:53:25.721|56=CLIENT1|10=244|
8=FIX.4.2|9=58|35=0|34=124|49=CLIENT1|52=20260228-11:53:35.018|56=FIXHUB|10=244|
8=FIX.4.2|9=58|35=0|34=125|49=FIXHUB|52=20260228-11:53:55.718|56=CLIENT1|10=254|
8=FIX.4.2|9=58|35=0|34=125|49=CLIENT1|52=20260228-11:54:05.018|56=FIXHUB|10=243|
8=FIX.4.2|9=58|35=0|34=126|49=FIXHUB|52=20260228-11:54:25.721|56=CLIENT1|10=247|
8=FIX.4.2|9=58|35=0|34=126|49=CLIENT1|52=20260228-11:54:35.018|56=FIXHUB|10=247|
8=FIX.4.2|9=58|35=0|34=127|49=FIXHUB|52=20260228-11:54:55.728|56=CLIENT1|10=002|
8=FIX.4.2|9=58|35=0|34=127|49=CLIENT1|52=20260228-11:55:06.019|56=FIXHUB|10=248|
8=FIX.4.2|9=58|35=0|34=128|49=FIXHUB|52=20260228-11:55:25.728|56=CLIENT1|10=001|
8=FIX.4.2|9=58|35=0|34=128|49=CLIENT1|52=20260228-11:55:36.028|56=FIXHUB|10=252|
8=FIX.4.2|9=58|35=0|34=129|49=FIXHUB|52=20260228-11:55:55.728|56=CLIENT1|10=005|
8=FIX.4.2|9=58|35=0|34=129|49=CLIENT1|52=20260228-11:56:07.018|56=FIXHUB|10=251|
8=FIX.4.2|9=58|35=0|34=130|49=FIXHUB|52=20260228-11:56:25.728|56=CLIENT1|10=251|
8=FIX.4.2|9=58|35=0|34=130|49=CLIENT1|52=20260228-11:56:37.029|56=FIXHUB|10=248|
8=FIX.4.2|9=58|35=0|34=131|49=FIXHUB|52=20260228-11:56:55.720|56=CLIENT1|10=247|
8=FIX.4.2|9=58|35=0|34=131|49=CLIENT1|52=20260228-11:57:07.022|56=FIXHUB|10=240|
8=FIX.4.2|9=58|35=0|34=132|49=FIXHUB|52=20260228-11:57:25.729|56=CLIENT1|10=255|
8=FIX.4.2|9=58|35=0|34=132|49=CLIENT1|52=20260228-11:57:37.019|56=FIXHUB|10=250|
8=FIX.4.2|9=58|35=0|34=133|49=FIXHUB|52=20260228-11:57:55.721|56=CLIENT1|10=251|
8=FIX.4.2|9=58|35=0|34=133|49=CLIENT1|52=20260228-11:58:07.010|56=FIXHUB|10=240|
8=FIX.4.2|9=58|35=0|34=134|49=FIXHUB|52=20260228-11:58:25.725|56=CLIENT1|10=254|
8=FIX.4.2|9=58|35=0|34=134|49=CLIENT1|52=20260228-11:58:37.013|56=FIXHUB|10=247|
8=FIX.4.2|9=58|35=0|34=135|49=FIXHUB|52=20260228-11:58:56.725|56=CLIENT1|10=003|
8=FIX.4.2|9=58|35=0|34=135|49=CLIENT1|52=20260228-11:59:07.009|56=FIXHUB|10=251|
8=FIX.4.2|9=58|35=0|34=136|49=FIXHUB|52=20260228-11:59:26.718|56=CLIENT1|10=004|
8=FIX.4.2|9=58|35=0|34=136|49=CLIENT1|52=20260228-11:59:37.011|56=FIXHUB|10=248|
8=FIX.4.2|9=58|35=0|34=137|49=FIXHUB|52=20260228-11:59:56.715|56=CLIENT1|10=005|
8=FIX.4.2|9=58|35=0|34=137|49=CLIENT1|52=20260228-12:00:07.009|56=FIXHUB|10=240|
8=FIX.4.2|9=58|35=0|34=138|49=FIXHUB|52=20260228-12:00:26.728|56=CLIENT1|10=250|
8=FIX.4.2|9=58|35=0|34=138|49=CLIENT1|52=20260228-12:00:37.010|56=FIXHUB|10=236|
8=FIX.4.2|9=58|35=0|34=139|49=FIXHUB|52=20260228-12:00:56.724|56=CLIENT1|10=250|
8=FIX.4.2|9=58|35=0|34=139|49=CLIENT1|52=20260228-12:01:07.010|56=FIXHUB|10=235|
8=FIX.4.2|9=58|35=0|34=140|49=FIXHUB|52=20260228-12:01:26.725|56=CLIENT1|10=241|
8=FIX.4.2|9=58|35=0|34=140|49=CLIENT1|52=20260228-12:01:37.013|56=FIXHUB|10=233|
8=FIX.4.2|9=58|35=0|34=141|49=FIXHUB|52=20260228-12:01:56.718|56=CLIENT1|10=247|
8=FIX.4.2|9=58|35=0|34=141|49=CLIENT1|52=20260228-12:02:07.017|56=FIXHUB|10=236|
8=FIX.4.2|9=58|35=0|34=142|49=FIXHUB|52=20260228-12:02:26.728|56=CLIENT1|10=247|
8=FIX.4.2|9=58|35=0|34=142|49=CLIENT1|52=20260228-12:02:37.013|56=FIXHUB|10=236|
8=FIX.4.2|9=58|35=0|34=143|49=FIXHUB|52=20260228-12:02:56.727|56=CLIENT1|10=250|
8=FIX.4.2|9=58|35=0|34=143|49=CLIENT1|52=20260228-12:03:07.017|56=FIXHUB|10=239|
8=FIX.4.2|9=58|35=0|34=144|49=FIXHUB|52=20260228-12:03:26.726|56=CLIENT1|10=248|
8=FIX.4.2|9=58|35=0|34=144|49=CLIENT1|52=20260228-12:03:37.014|56=FIXHUB|10=240|
8=FIX.4.2|9=58|35=0|34=145|49=FIXHUB|52=20260228-12:03:57.723|56=CLIENT1|10=250|
8=FIX.4.2|9=58|35=0|34=145|49=CLIENT1|52=20260228-12:04:07.013|56=FIXHUB|10=238|
8=FIX.4.2|9=58|35=0|34=146|49=FIXHUB|52=20260228-12:04:27.720|56=CLIENT1|10=246|
8=FIX.4.2|9=58|35=0|34=146|49=CLIENT1|52=20260228-12:04:37.018|56=FIXHUB|10=247|
8=FIX.4.2|9=58|35=0|34=147|49=FIXHUB|52=20260228-12:04:57.729|56=CLIENT1|10=003|
8=FIX.4.2|9=58|35=0|34=147|49=CLIENT1|52=20260228-12:05:07.020|56=FIXHUB|10=239|
8=FIX.4.2|9=58|35=0|34=148|49=FIXHUB|52=20260228-12:05:28.724|56=CLIENT1|10=254|
8=FIX.4.2|9=58|35=0|34=148|49=CLIENT1|52=20260228-12:05:38.018|56=FIXHUB|10=251|
8=FIX.4.2|9=58|35=0|34=149|49=FIXHUB|52=20260228-12:05:58.725|56=CLIENT1|10=003|
8=FIX.4.2|9=58|35=0|34=149|49=CLIENT1|52=20260228-12:06:08.022|56=FIXHUB|10=245|
8=FIX.4.2|9=58|35=0|34=150|49=FIXHUB|52=20260228-12:06:28.720|56=CLIENT1|10=244|
8=FIX.4.2|9=58|35=0|34=150|49=CLIENT1|52=20260228-12:06:39.020|56=FIXHUB|10=239|
8=FIX.4.2|9=58|35=0|34=151|49=FIXHUB|52=20260228-12:06:58.725|56=CLIENT1|10=253|
8=FIX.4.2|9=58|35=0|34=151|49=CLIENT1|52=20260228-12:07:10.013|56=FIXHUB|10=232|
8=FIX.4.2|9=58|35=0|34=152|49=FIXHUB|52=20260228-12:07:28.718|56=CLIENT1|10=254|
8=FIX.4.2|9=58|35=0|34=152|49=CLIENT1|52=20260228-12:07:40.018|56=FIXHUB|10=241|
8=FIX.4.2|9=58|35=0|34=153|49=FIXHUB|52=20260228-12:07:58.725|56=CLIENT1|10=000|
8=FIX.4.2|9=58|35=0|34=153|49=CLIENT1|52=20260228-12:08:10.017|56=FIXHUB|10=239|
8=FIX.4.2|9=58|35=0|34=154|49=FIXHUB|52=20260228-12:08:28.727|56=CLIENT1|10=001|
8=FIX.4.2|9=58|35=0|34=154|49=CLIENT1|52=20260228-12:08:40.013|56=FIXHUB|10=239|
8=FIX.4.2|9=58|35=0|34=155|49=FIXHUB|52=20260228-12:08:58.729|56=CLIENT1|10=007|
8=FIX.4.2|9=58|35=0|34=155|49=CLIENT1|52=20260228-12:09:10.022|56=FIXHUB|10=238|
8=FIX.4.2|9=58|35=0|34=156|49=FIXHUB|52=20260228-12:09:29.716|56=CLIENT1|10=003|
8=FIX.4.2|9=58|35=0|34=156|49=CLIENT1|52=20260228-12:09:40.017|56=FIXHUB|10=246|
8=FIX.4.2|9=58|35=0|34=157|49=FIXHUB|52=20260228-12:09:59.723|56=CLIENT1|10=005|
8=FIX.4.2|9=58|35=0|34=157|49=CLIENT1|52=20260228-12:10:10.014|56=FIXHUB|10=233|
8=FIX.4.2|9=58|35=0|34=158|49=FIXHUB|52=20260228-12:10:29.727|56=CLIENT1|10=255|
8=FIX.4.2|9=58|35=0|34=158|49=CLIENT1|52=20260228-12:10:40.012|56=FIXHUB|10=235|
8=FIX.4.2|9=58|35=0|34=159|49=FIXHUB|52=20260228-12:10:59.728|56=CLIENT1|10=004|
8=FIX.4.2|9=58|35=0|34=159|49=CLIENT1|52=20260228-12:11:10.015|56=FIXHUB|10=237|
8=FIX.4.2|9=58|35=0|34=160|49=FIXHUB|52=20260228-12:11:29.720|56=CLIENT1|10=242|
8=FIX.4.2|9=58|35=0|34=160|49=CLIENT1|52=20260228-12:11:40.014|56=FIXHUB|10=231|
8=FIX.4.2|9=58|35=0|34=161|49=FIXHUB|52=20260228-12:11:59.728|56=CLIENT1|10=254|
8=FIX.4.2|9=58|35=0|34=161|49=CLIENT1|52=20260228-12:12:10.009|56=FIXHUB|10=234|
8=FIX.4.2|9=58|35=0|34=162|49=FIXHUB|52=20260228-12:12:29.720|56=CLIENT1|10=245|
8=FIX.4.2|9=58|35=0|34=162|49=CLIENT1|52=20260228-12:12:40.021|56=FIXHUB|10=232|
8=FIX.4.2|9=58|35=0|34=163|49=FIXHUB|52=20260228-12:12:59.728|56=CLIENT1|10=001|
8=FIX.4.2|9=58|35=0|34=163|49=CLIENT1|52=20260228-12:13:10.019|56=FIXHUB|10=238|
8=FIX.4.2|9=58|35=0|34=164|49=FIXHUB|52=20260228-12:13:29.726|56=CLIENT1|10=254|
8=FIX.4.2|9=58|35=0|34=164|49=CLIENT1|52=20260228-12:13:40.014|56=FIXHUB|10=237|
8=FIX.4.2|9=58|35=0|34=165|49=FIXHUB|52=20260228-12:13:59.729|56=CLIENT1|10=005|
8=FIX.4.2|9=58|35=0|34=165|49=CLIENT1|52=20260228-12:14:10.028|56=FIXHUB|10=241|
8=FIX.4.2|9=58|35=0|34=166|49=FIXHUB|52=20260228-12:14:29.722|56=CLIENT1|10=253|
8=FIX.4.2|9=58|35=0|34=166|49=CLIENT1|52=20260228-12:14:41.015|56=FIXHUB|10=242|
8=FIX.4.2|9=58|35=0|34=167|49=FIXHUB|52=20260228-12:14:59.722|56=CLIENT1|10=001|
8=FIX.4.2|9=58|35=0|34=167|49=CLIENT1|52=20260228-12:15:11.014|56=FIXHUB|10=240|
8=FIX.4.2|9=58|35=0|34=168|49=FIXHUB|52=20260228-12:15:29.724|56=CLIENT1|10=002|
8=FIX.4.2|9=58|35=0|34=168|49=CLIENT1|52=20260228-12:15:41.013|56=FIXHUB|10=243|
8=FIX.4.2|9=58|35=0|34=169|49=FIXHUB|52=20260228-12:15:59.728|56=CLIENT1|10=010|
8=FIX.4.2|9=58|35=0|34=169|49=CLIENT1|52=20260228-12:16:11.021|56=FIXHUB|10=241|
8=FIX.4.2|9=58|35=0|34=170|49=FIXHUB|52=20260228-12:16:30.728|56=CLIENT1|10=248|
8=FIX.4.2|9=58|35=0|34=170|49=CLIENT1|52=20260228-12:16:42.028|56=FIXHUB|10=244|
8=FIX.4.2|9=58|35=0|34=171|49=FIXHUB|52=20260228-12:17:01.718|56=CLIENT1|10=247|
8=FIX.4.2|9=58|35=0|34=171|49=CLIENT1|52=20260228-12:17:13.012|56=FIXHUB|10=237|
8=FIX.4.2|9=58|35=0|34=172|49=FIXHUB|52=20260228-12:17:31.721|56=CLIENT1|10=245|
8=FIX.4.2|9=58|35=0|34=172|49=CLIENT1|52=20260228-12:17:43.014|56=FIXHUB|10=243|
8=FIX.4.2|9=58|35=0|34=173|49=FIXHUB|52=20260228-12:18:01.726|56=CLIENT1|10=249|
8=FIX.4.2|9=58|35=0|34=173|49=CLIENT1|52=20260228-12:18:13.013|56=FIXHUB|10=241|
8=FIX.4.2|9=58|35=0|34=174|49=FIXHUB|52=20260228-12:18:32.716|56=CLIENT1|10=253|
8=FIX.4.2|9=58|35=0|34=174|49=CLIENT1|52=20260228-12:18:43.014|56=FIXHUB|10=246|
8=FIX.4.2|9=58|35=0|34=175|49=FIXHUB|52=20260228-12:19:02.726|56=CLIENT1|10=253|
8=FIX.4.2|9=58|35=0|34=175|49=CLIENT1|52=20260228-12:19:13.008|56=FIXHUB|10=248|
8=FIX.4.2|9=58|35=0|34=176|49=FIXHUB|52=20260228-12:19:32.725|56=CLIENT1|10=000|
8=FIX.4.2|9=58|35=0|34=176|49=CLIENT1|52=20260228-12:19:43.021|56=FIXHUB|10=247|
8=FIX.4.2|9=58|35=0|34=177|49=FIXHUB|52=20260228-12:20:02.718|56=CLIENT1|10=248|
8=FIX.4.2|9=70|35=A|34=177|49=CLIENT1|52=20260228-12:43:33.102|56=FIXHUB|98=0|108=30|10=024|
8=FIX.4.2|9=68|35=A|34=1|49=FIXHUB|52=20260228-12:43:33.182|56=CLIENT1|98=0|108=30|10=185|
8=FIX.4.2|9=109|35=5|34=178|49=CLIENT1|52=20260228-12:43:33.190|56=FIXHUB|58=MsgSeqNum too low, expecting 178 but received 1|10=051|
8=FIX.4.2|9=56|35=5|34=2|49=FIXHUB|52=20260228-12:43:33.192|56=CLIENT1|10=147|
8=FIX.4.2|9=70|35=A|34=179|49=CLIENT1|52=20260228-12:44:03.105|56=FIXHUB|98=0|108=30|10=027|
8=FIX.4.2|9=68|35=A|34=1|49=FIXHUB|52=20260228-12:44:03.113|56=CLIENT1|98=0|108=30|10=177|
8=FIX.4.2|9=109|35=5|34=180|49=CLIENT1|52=20260228-12:44:03.115|56=FIXHUB|58=MsgSeqNum too low, expecting 178 but received 1|10=039|
8=FIX.4.2|9=56|35=5|34=2|49=FIXHUB|52=20260228-12:44:03.116|56=CLIENT1|10=141|
8=FIX.4.2|9=70|35=A|34=181|49=CLIENT1|52=20260228-12:44:33.093|56=FIXHUB|98=0|108=30|10=029|
8=FIX.4.2|9=68|35=A|34=1|49=FIXHUB|52=20260228-12:44:33.100|56=CLIENT1|98=0|108=30|10=176|
8=FIX.4.2|9=109|35=5|34=182|49=CLIENT1|52=20260228-12:44:33.102|56=FIXHUB|58=MsgSeqNum too low, expecting 178 but received 1|10=040|
8=FIX.4.2|9=56|35=5|34=2|49=FIXHUB|52=20260228-12:44:33.103|56=CLIENT1|10=140|
8=FIX.4.2|9=68|35=A|34=1|49=CLIENT1|52=20260228-12:48:02.194|56=FIXHUB|98=0|108=30|10=189|
8=FIX.4.2|9=68|35=A|34=1|49=FIXHUB|52=20260228-12:48:02.267|56=CLIENT1|98=0|108=30|10=190|
8=FIX.4.2|9=117|35=D|34=2|49=CLIENT1|52=20260228-12:48:02.297|56=FIXHUB|11=ORDER-1|38=100|40=1|54=1|55=AAPL|60=20260228-12:48:02.295|10=214|
8=FIX.4.2|9=114|35=3|34=2|49=FIXHUB|52=20260228-12:48:02.307|56=CLIENT1|45=2|58=Required tag missing, field=21|371=21|372=D|373=1|10=076|
8=FIX.4.2|9=56|35=0|34=3|49=FIXHUB|52=20260228-12:48:32.310|56=CLIENT1|10=139|
8=FIX.4.2|9=56|35=0|34=3|49=CLIENT1|52=20260228-12:48:32.316|56=FIXHUB|10=145|
8=FIX.4.2|9=56|35=0|34=4|49=FIXHUB|52=20260228-12:49:02.307|56=CLIENT1|10=144|
8=FIX.4.2|9=56|35=0|34=4|49=CLIENT1|52=20260228-12:49:02.309|56=FIXHUB|10=146|
8=FIX.4.2|9=56|35=0|34=5|49=FIXHUB|52=20260228-12:49:32.309|56=CLIENT1|10=150|
8=FIX.4.2|9=56|35=0|34=5|49=CLIENT1|52=20260228-12:49:32.311|56=FIXHUB|10=143|
8=FIX.4.2|9=56|35=0|34=6|49=FIXHUB|52=20260228-12:50:02.305|56=CLIENT1|10=136|
8=FIX.4.2|9=56|35=0|34=6|49=CLIENT1|52=20260228-12:50:02.306|56=FIXHUB|10=137|
8=FIX.4.2|9=56|35=0|34=7|49=FIXHUB|52=20260228-12:50:32.311|56=CLIENT1|10=137|
8=FIX.4.2|9=56|35=0|34=7|49=CLIENT1|52=20260228-12:50:32.315|56=FIXHUB|10=141|
8=FIX.4.2|9=56|35=0|34=8|49=FIXHUB|52=20260228-12:51:02.311|56=CLIENT1|10=136|
8=FIX.4.2|9=56|35=0|34=8|49=CLIENT1|52=20260228-12:51:02.313|56=FIXHUB|10=138|
8=FIX.4.2|9=68|35=A|34=9|49=CLIENT1|52=20260228-12:54:32.174|56=FIXHUB|98=0|108=30|10=195|
8=FIX.4.2|9=68|35=A|34=1|49=FIXHUB|52=20260228-12:54:32.248|56=CLIENT1|98=0|108=30|10=189|
8=FIX.4.2|9=106|35=5|34=10|49=CLIENT1|52=20260228-12:54:32.257|56=FIXHUB|58=MsgSeqNum too low, expecting 9 but received 1|10=143|
8=FIX.4.2|9=56|35=5|34=2|49=FIXHUB|52=20260228-12:54:32.260|56=CLIENT1|10=144|
8=FIX.4.2|9=68|35=A|34=1|49=CLIENT1|52=20260228-12:57:05.827|56=FIXHUB|98=0|108=30|10=195|
8=FIX.4.2|9=68|35=A|34=1|49=FIXHUB|52=20260228-12:57:05.893|56=CLIENT1|98=0|108=30|10=198|
8=FIX.4.2|9=122|35=D|34=2|49=CLIENT1|52=20260228-12:57:05.924|56=FIXHUB|11=ORDER-1|21=1|38=100|40=1|54=1|55=AAPL|60=20260228-12:57:05.922|10=164|
8=FIX.4.2|9=56|35=0|34=2|49=FIXHUB|52=20260228-12:57:36.020|56=CLIENT1|10=140|
8=FIX.4.2|9=56|35=0|34=3|49=CLIENT1|52=20260228-12:57:36.029|56=FIXHUB|10=150|
8=FIX.4.2|9=56|35=0|34=3|49=FIXHUB|52=20260228-12:58:06.020|56=CLIENT1|10=139|
8=FIX.4.2|9=56|35=0|34=4|49=CLIENT1|52=20260228-12:58:06.020|56=FIXHUB|10=140|
8=FIX.4.2|9=68|35=A|34=5|49=CLIENT1|52=20260228-13:01:46.130|56=FIXHUB|98=0|108=30|10=181|
8=FIX.4.2|9=68|35=A|34=1|49=FIXHUB|52=20260228-13:01:46.193|56=CLIENT1|98=0|108=30|10=186|
8=FIX.4.2|9=65|35=2|34=2|49=FIXHUB|52=20260228-13:01:46.196|56=CLIENT1|7=1|16=0|10=014|
8=FIX.4.2|9=105|35=5|34=6|49=CLIENT1|52=20260228-13:01:46.202|56=FIXHUB|58=MsgSeqNum too low, expecting 4 but received 1|10=082|
8=FIX.4.2|9=56|35=5|34=3|49=FIXHUB|52=20260228-13:01:46.206|56=CLIENT1|10=143|
8=FIX.4.2|9=68|35=A|34=7|49=CLIENT1|52=20260228-13:02:13.868|56=FIXHUB|98=0|108=30|10=196|
8=FIX.4.2|9=68|35=A|34=4|49=FIXHUB|52=20260228-13:02:13.934|56=CLIENT1|98=0|108=30|10=187|
8=FIX.4.2|9=65|35=2|34=5|49=FIXHUB|52=20260228-13:02:13.936|56=CLIENT1|7=1|16=0|10=014|
8=FIX.4.2|9=122|35=D|34=8|49=CLIENT1|52=20260228-13:02:13.963|56=FIXHUB|11=ORDER-1|21=1|38=100|40=1|54=1|55=AAPL|60=20260228-13:02:13.962|10=157|
8=FIX.4.2|9=98|35=4|34=1|43=Y|49=CLIENT1|52=20260228-13:02:13.969|56=FIXHUB|122=20260228-13:02:13.968|36=2|123=Y|10=170|
8=FIX.4.2|9=153|35=D|34=2|43=Y|49=CLIENT1|52=20260228-13:02:13.968|56=FIXHUB|122=20260228-12:57:05.924|11=ORDER-1|21=1|38=100|40=1|54=1|55=AAPL|60=20260228-12:57:05.922|10=175|
8=FIX.4.2|9=98|35=4|34=3|43=Y|49=CLIENT1|52=20260228-13:02:13.973|56=FIXHUB|122=20260228-13:02:13.972|36=8|123=Y|10=168|
8=FIX.4.2|9=153|35=D|34=8|43=Y|49=CLIENT1|52=20260228-13:02:13.972|56=FIXHUB|122=20260228-13:02:13.963|11=ORDER-1|21=1|38=100|40=1|54=1|55=AAPL|60=20260228-13:02:13.962|10=163|
8=FIX.4.2|9=68|35=A|34=7|49=CLIENT1|52=20260228-13:02:16.120|56=FIXHUB|98=0|108=30|10=180|
8=FIX.4.2|9=56|35=0|34=6|49=FIXHUB|52=20260228-13:02:44.112|56=CLIENT1|10=136|
8=FIX.4.2|9=56|35=0|34=9|49=CLIENT1|52=20260228-13:02:44.114|56=FIXHUB|10=141|
8=FIX.4.2|9=69|35=A|34=10|49=CLIENT1|52=20260228-13:02:45.795|56=FIXHUB|98=0|108=30|10=243|
8=FIX.4.2|9=68|35=A|34=8|49=CLIENT1|52=20260228-13:02:46.120|56=FIXHUB|98=0|108=30|10=184|
8=FIX.4.2|9=56|35=0|34=7|49=FIXHUB|52=20260228-13:03:14.107|56=CLIENT1|10=139|
8=FIX.4.2|9=57|35=0|34=10|49=CLIENT1|52=20260228-13:03:14.111|56=FIXHUB|10=177|
8=FIX.4.2|9=69|35=A|34=11|49=CLIENT1|52=20260228-13:03:15.775|56=FIXHUB|98=0|108=30|10=240|
8=FIX.4.2|9=68|35=A|34=9|49=CLIENT1|52=20260228-13:03:16.119|56=FIXHUB|98=0|108=30|10=191|
8=FIX.4.2|9=56|35=0|34=8|49=FIXHUB|52=20260228-13:03:44.101|56=CLIENT1|10=137|
8=FIX.4.2|9=57|35=0|34=11|49=CLIENT1|52=20260228-13:03:44.103|56=FIXHUB|10=182|
8=FIX.4.2|9=69|35=A|34=12|49=CLIENT1|52=20260228-13:03:45.774|56=FIXHUB|98=0|108=30|10=243|
8=FIX.4.2|9=69|35=A|34=10|49=CLIENT1|52=20260228-13:03:46.119|56=FIXHUB|98=0|108=30|10=235|
8=FIX.4.2|9=56|35=0|34=9|49=FIXHUB|52=20260228-13:04:14.115|56=CLIENT1|10=141|
8=FIX.4.2|9=57|35=0|34=12|49=CLIENT1|52=20260228-13:04:14.118|56=FIXHUB|10=187|
8=FIX.4.2|9=69|35=A|34=13|49=CLIENT1|52=20260228-13:04:15.775|56=FIXHUB|98=0|108=30|10=243|
8=FIX.4.2|9=69|35=A|34=11|49=CLIENT1|52=20260228-13:04:16.119|56=FIXHUB|98=0|108=30|10=234|
8=FIX.4.2|9=57|35=0|34=10|49=FIXHUB|52=20260228-13:04:44.111|56=CLIENT1|10=181|
8=FIX.4.2|9=57|35=0|34=13|49=CLIENT1|52=20260228-13:04:44.114|56=FIXHUB|10=187|
8=FIX.4.2|9=69|35=A|34=14|49=CLIENT1|52=20260228-13:04:45.775|56=FIXHUB|98=0|108=30|10=247|
8=FIX.4.2|9=69|35=A|34=12|49=CLIENT1|52=20260228-13:04:46.119|56=FIXHUB|98=0|108=30|10=238|
8=FIX.4.2|9=57|35=0|34=11|49=FIXHUB|52=20260228-13:05:14.102|56=CLIENT1|10=180|
8=FIX.4.2|9=57|35=0|34=14|49=CLIENT1|52=20260228-13:05:14.857|56=FIXHUB|10=200|
8=FIX.4.2|9=69|35=A|34=15|49=CLIENT1|52=20260228-13:05:15.775|56=FIXHUB|98=0|108=30|10=246|
8=FIX.4.2|9=69|35=A|34=13|49=CLIENT1|52=20260228-13:05:16.120|56=FIXHUB|98=0|108=30|10=229|
