8=FIX.4.2|9=68|35=A|34=1|49=FIXHUB|52=20260228-17:59:44.142|56=CLIENT1|98=0|108=30|10=195|8=FIX.4.2|9=56|35=0|34=2|49=FIXHUB|52=20260228-18:00:14.903|56=CLIENT1|10=140|8=FIX.4.2|9=56|35=0|34=3|49=FIXHUB|52=20260228-18:00:44.904|56=CLIENT1|10=145|8=FIX.4.2|9=56|35=0|34=4|49=FIXHUB|52=20260228-18:01:14.904|56=CLIENT1|10=144|8=FIX.4.2|9=56|35=0|34=5|49=FIXHUB|52=20260228-18:01:44.915|56=CLIENT1|10=150|8=FIX.4.2|9=56|35=0|34=6|49=FIXHUB|52=20260228-18:02:14.911|56=CLIENT1|10=145|8=FIX.4.2|9=56|35=0|34=7|49=FIXHUB|52=20260228-18:02:44.915|56=CLIENT1|10=153|8=FIX.4.2|9=56|35=0|34=8|49=FIXHUB|52=20260228-18:03:15.106|56=CLIENT1|10=145|8=FIX.4.2|9=56|35=0|34=9|49=FIXHUB|52=20260228-18:03:45.098|56=CLIENT1|10=159|8=FIX.4.2|9=57|35=0|34=10|49=FIXHUB|52=20260228-18:04:15.106|56=CLIENT1|10=188|8=FIX.4.2|9=57|35=0|34=11|49=FIXHUB|52=20260228-18:04:45.905|56=CLIENT1|10=199|8=FIX.4.2|9=57|35=0|34=12|49=FIXHUB|52=20260228-18:05:15.904|56=CLIENT1|10=197|8=FIX.4.2|9=57|35=0|34=13|49=FIXHUB|52=20260228-18:05:45.903|56=CLIENT1|10=200|8=FIX.4.2|9=57|35=0|34=14|49=FIXHUB|52=20260228-18:06:15.903|56=CLIENT1|10=199|8=FIX.4.2|9=57|35=0|34=15|49=FIXHUB|52=20260228-18:06:45.903|56=CLIENT1|10=203|8=FIX.4.2|9=57|35=0|34=16|49=FIXHUB|52=20260228-18:07:15.904|56=CLIENT1|10=203|8=FIX.4.2|9=57|35=0|34=17|49=FIXHUB|52=20260228-18:07:45.904|56=CLIENT1|10=207|8=FIX.4.2|9=57|35=0|34=18|49=FIXHUB|52=20260228-18:08:15.904|56=CLIENT1|10=206|8=FIX.4.2|9=57|35=0|34=19|49=FIXHUB|52=20260228-18:08:45.903|56=CLIENT1|10=209|8=FIX.4.2|9=57|35=0|34=20|49=FIXHUB|52=20260228-18:09:15.904|56=CLIENT1|10=200|8=FIX.4.2|9=57|35=0|34=21|49=FIXHUB|52=20260228-18:09:45.904|56=CLIENT1|10=204|8=FIX.4.2|9=69|35=A|34=22|49=FIXHUB|52=20260228-18:10:53.391|56=CLIENT1|98=0|108=30|10=241|8=FIX.4.2|9=57|35=0|34=23|49=FIXHUB|52=20260228-18:11:24.162|56=CLIENT1|10=192|8=FIX.4.2|9=57|35=0|34=24|49=FIXHUB|52=20260228-18:11:54.172|56=CLIENT1|10=197|8=FIX.4.2|9=57|35=0|34=25|49=FIXHUB|52=20260228-18:12:24.163|56=CLIENT1|10=196|8=FIX.4.2|9=57|35=0|34=26|49=FIXHUB|52=20260228-18:12:54.162|56=CLIENT1|10=199|8=FIX.4.2|9=57|35=0|34=27|49=FIXHUB|52=20260228-18:13:24.162|56=CLIENT1|10=198|8=FIX.4.2|9=69|35=A|34=28|49=FIXHUB|52=20260228-18:13:52.625|56=CLIENT1|98=0|108=30|10=249|8=FIX.4.2|9=69|35=A|34=29|49=FIXHUB|52=20260228-18:32:12.580|56=CLIENT1|98=0|108=30|10=247|8=FIX.4.2|9=69|35=A|34=30|49=FIXHUB|52=20260228-18:32:26.414|56=CLIENT1|98=0|108=30|10=240|8=FIX.4.2|9=57|35=0|34=31|49=FIXHUB|52=20260228-18:32:57.179|56=CLIENT1|10=208|8=FIX.4.2|9=57|35=0|34=32|49=FIXHUB|52=20260228-18:33:27.177|56=CLIENT1|10=205|8=FIX.4.2|9=57|35=0|34=33|49=FIXHUB|52=20260228-18:33:57.178|56=CLIENT1|10=210|8=FIX.4.2|9=57|35=0|34=34|49=FIXHUB|52=20260228-18:34:27.177|56=CLIENT1|10=208|8=FIX.4.2|9=57|35=0|34=35|49=FIXHUB|52=20260228-18:34:57.177|56=CLIENT1|10=212|8=FIX.4.2|9=69|35=A|34=36|49=FIXHUB|52=20260228-18:35:08.027|56=CLIENT1|98=0|108=30|10=249|8=FIX.4.2|9=69|35=A|34=37|49=FIXHUB|52=20260228-18:35:34.689|56=CLIENT1|98=0|108=30|10=007|8=FIX.4.2|9=57|35=0|34=38|49=FIXHUB|52=20260228-18:36:05.451|56=CLIENT1|10=205|8=FIX.4.2|9=57|35=0|34=39|49=FIXHUB|52=20260228-18:36:35.451|56=CLIENT1|10=209|8=FIX.4.2|9=69|35=A|34=40|49=FIXHUB|52=20260228-18:37:01.158|56=CLIENT1|98=0|108=30|10=244|8=FIX.4.2|9=57|35=0|34=41|49=FIXHUB|52=20260228-18:37:31.916|56=CLIENT1|10=205|8=FIX.4.2|9=69|35=A|34=42|49=FIXHUB|52=20260228-18:37:44.634|56=CLIENT1|98=0|108=30|10=252|8=FIX.4.2|9=57|35=0|34=43|49=FIXHUB|52=20260228-18:38:15.406|56=CLIENT1|10=204|8=FIX.4.2|9=57|35=0|34=44|49=FIXHUB|52=20260228-18:38:45.405|56=CLIENT1|10=207|8=FIX.4.2|9=57|35=0|34=45|49=FIXHUB|52=20260228-18:39:15.409|56=CLIENT1|10=210|8=FIX.4.2|9=57|35=0|34=46|49=FIXHUB|52=20260228-18:39:45.406|56=CLIENT1|10=211|