8=FIX.4.2|9=73|35=A|34=1|49=FIXHUB|52=20260306-20:02:38.923|56=EXCHANGE_NSE|98=0|108=30|10=076|8=FIX.4.2|9=110|35=5|34=2|49=FIXHUB|52=20260306-20:03:28.407|56=EXCHANGE_NSE|58=MsgSeqNum too low, expecting 3 but received 1|10=229|8=FIX.4.2|9=73|35=A|34=3|49=FIXHUB|52=20260306-20:03:30.054|56=EXCHANGE_NSE|98=0|108=30|10=066|8=FIX.4.2|9=61|35=0|34=4|49=FIXHUB|52=20260306-20:04:00.966|56=EXCHANGE_NSE|10=032|8=FIX.4.2|9=61|35=0|34=5|49=FIXHUB|52=20260306-20:04:30.958|56=EXCHANGE_NSE|10=037|8=FIX.4.2|9=61|35=0|34=6|49=FIXHUB|52=20260306-20:05:00.964|56=EXCHANGE_NSE|10=033|8=FIX.4.2|9=110|35=5|34=7|49=FIXHUB|52=20260306-20:06:01.218|56=EXCHANGE_NSE|58=MsgSeqNum too low, expecting 7 but received 2|10=233|8=FIX.4.2|9=73|35=A|34=8|49=FIXHUB|52=20260306-20:06:02.743|56=EXCHANGE_NSE|98=0|108=30|10=078|8=FIX.4.2|9=70|35=2|34=9|49=FIXHUB|52=20260306-20:06:02.744|56=EXCHANGE_NSE|7=7|16=0|10=166|8=FIX.4.2|9=62|35=0|34=10|49=FIXHUB|52=20260306-20:06:33.479|56=EXCHANGE_NSE|10=085|8=FIX.4.2|9=62|35=0|34=11|49=FIXHUB|52=20260306-20:07:03.479|56=EXCHANGE_NSE|10=084|8=FIX.4.2|9=62|35=0|34=12|49=FIXHUB|52=20260306-20:07:33.478|56=EXCHANGE_NSE|10=087|