8=FIX.4.2|9=73|35=A|34=1|49=FIXHUB|52=20260306-20:02:30.157|56=EXCHANGE_BSE|98=0|108=30|10=055|8=FIX.4.2|9=73|35=A|34=2|49=FIXHUB|52=20260306-20:03:00.140|56=EXCHANGE_BSE|98=0|108=30|10=046|8=FIX.4.2|9=73|35=A|34=3|49=FIXHUB|52=20260306-20:03:23.169|56=EXCHANGE_BSE|98=0|108=30|10=063|8=FIX.4.2|9=73|35=A|34=4|49=FIXHUB|52=20260306-20:03:53.155|56=EXCHANGE_BSE|98=0|108=30|10=062|8=FIX.4.2|9=73|35=A|34=5|49=FIXHUB|52=20260306-20:04:23.153|56=EXCHANGE_BSE|98=0|108=30|10=059|8=FIX.4.2|9=73|35=A|34=6|49=FIXHUB|52=20260306-20:04:53.152|56=EXCHANGE_BSE|98=0|108=30|10=062|8=FIX.4.2|9=73|35=A|34=7|49=FIXHUB|52=20260306-20:05:37.697|56=EXCHANGE_BSE|98=0|108=30|10=080|8=FIX.4.2|9=73|35=A|34=8|49=FIXHUB|52=20260306-20:06:07.693|56=EXCHANGE_BSE|98=0|108=30|10=075|8=FIX.4.2|9=73|35=A|34=9|49=FIXHUB|52=20260306-20:06:37.700|56=EXCHANGE_BSE|98=0|108=30|10=068|8=FIX.4.2|9=74|35=A|34=10|49=FIXHUB|52=20260306-20:07:07.700|56=EXCHANGE_BSE|98=0|108=30|10=107|8=FIX.4.2|9=74|35=A|34=11|49=FIXHUB|52=20260306-20:07:38.696|56=EXCHANGE_BSE|98=0|108=30|10=126|8=FIX.4.2|9=74|35=A|34=12|49=FIXHUB|52=20260308-20:59:00.881|56=EXCHANGE_BSE|98=0|108=30|10=121|