8=FIX.4.2|9=69|35=A|34=1|49=FIXHUB|52=20260306-19:44:38.627|56=CLIENT_B|98=0|108=30|10=056|8=FIX.4.2|9=66|35=2|34=2|49=FIXHUB|52=20260306-19:44:38.627|56=CLIENT_B|7=1|16=0|10=137|8=FIX.4.2|9=57|35=0|34=3|49=FIXHUB|52=20260306-19:45:09.494|56=CLIENT_B|10=014|8=FIX.4.2|9=57|35=0|34=4|49=FIXHUB|52=20260306-19:45:39.489|56=CLIENT_B|10=022|8=FIX.4.2|9=57|35=0|34=5|49=FIXHUB|52=20260306-19:46:09.488|56=CLIENT_B|10=020|8=FIX.4.2|9=57|35=0|34=6|49=FIXHUB|52=20260306-19:46:39.486|56=CLIENT_B|10=022|8=FIX.4.2|9=57|35=0|34=7|49=FIXHUB|52=20260306-19:47:09.494|56=CLIENT_B|10=020|8=FIX.4.2|9=57|35=0|34=8|49=FIXHUB|52=20260306-19:47:39.487|56=CLIENT_B|10=026|8=FIX.4.2|9=57|35=0|34=9|49=FIXHUB|52=20260306-19:48:09.493|56=CLIENT_B|10=022|8=FIX.4.2|9=58|35=0|34=10|49=FIXHUB|52=20260306-19:48:39.495|56=CLIENT_B|10=068|8=FIX.4.2|9=58|35=0|34=11|49=FIXHUB|52=20260306-19:49:09.491|56=CLIENT_B|10=063|