8=FIX.4.2|9=69|35=A|34=1|49=FIXHUB|52=20260306-19:44:02.263|56=CLIENT_A|98=0|108=30|10=042|8=FIX.4.2|9=66|35=2|34=2|49=FIXHUB|52=20260306-19:44:02.267|56=CLIENT_A|7=1|16=0|10=127|8=FIX.4.2|9=57|35=0|34=3|49=FIXHUB|52=20260306-19:44:32.494|56=CLIENT_A|10=008|8=FIX.4.2|9=57|35=0|34=4|49=FIXHUB|52=20260306-19:45:02.500|56=CLIENT_A|10=251|8=FIX.4.2|9=57|35=0|34=5|49=FIXHUB|52=20260306-19:45:32.493|56=CLIENT_A|10=010|8=FIX.4.2|9=57|35=0|34=6|49=FIXHUB|52=20260306-19:46:02.494|56=CLIENT_A|10=010|8=FIX.4.2|9=57|35=0|34=7|49=FIXHUB|52=20260306-19:46:32.492|56=CLIENT_A|10=012|8=FIX.4.2|9=57|35=0|34=8|49=FIXHUB|52=20260306-19:47:02.498|56=CLIENT_A|10=017|8=FIX.4.2|9=57|35=0|34=9|49=FIXHUB|52=20260306-19:47:32.489|56=CLIENT_A|10=021|8=FIX.4.2|9=58|35=0|34=10|49=FIXHUB|52=20260306-19:48:02.488|56=CLIENT_A|10=059|8=FIX.4.2|9=58|35=0|34=11|49=FIXHUB|52=20260306-19:48:32.488|56=CLIENT_A|10=063|8=FIX.4.2|9=58|35=0|34=12|49=FIXHUB|52=20260306-19:49:02.487|56=CLIENT_A|10=061|8=FIX.4.2|9=70|35=A|34=13|49=FIXHUB|52=20260306-20:00:51.208|56=CLIENT_A|98=0|108=30|10=072|8=FIX.4.2|9=58|35=0|34=14|49=FIXHUB|52=20260306-20:01:21.945|56=CLIENT_A|10=043|8=FIX.4.2|9=107|35=5|34=15|49=FIXHUB|52=20260306-20:03:47.223|56=CLIENT_A|58=MsgSeqNum too low, expecting 5 but received 1|10=245|8=FIX.4.2|9=70|35=A|34=16|49=FIXHUB|52=20260306-20:03:48.791|56=CLIENT_A|98=0|108=30|10=091|8=FIX.4.2|9=67|35=2|34=17|49=FIXHUB|52=20260306-20:03:48.794|56=CLIENT_A|7=5|16=0|10=188|8=FIX.4.2|9=58|35=0|34=18|49=FIXHUB|52=20260306-20:04:18.963|56=CLIENT_A|10=056|8=FIX.4.2|9=58|35=0|34=19|49=FIXHUB|52=20260306-20:04:48.956|56=CLIENT_A|10=062|8=FIX.4.2|9=107|35=5|34=20|49=FIXHUB|52=20260306-20:05:38.630|56=CLIENT_A|58=MsgSeqNum too low, expecting 5 but received 1|10=245|8=FIX.4.2|9=70|35=A|34=21|49=FIXHUB|52=20260306-20:05:40.421|56=CLIENT_A|98=0|108=30|10=071|8=FIX.4.2|9=67|35=2|34=22|49=FIXHUB|52=20260306-20:05:40.422|56=CLIENT_A|7=5|16=0|10=166|8=FIX.4.2|9=58|35=0|34=23|49=FIXHUB|52=20260306-20:06:10.486|56=CLIENT_A|10=046|8=FIX.4.2|9=58|35=0|34=24|49=FIXHUB|52=20260306-20:06:40.488|56=CLIENT_A|10=052|8=FIX.4.2|9=58|35=0|34=25|49=FIXHUB|52=20260306-20:07:10.489|56=CLIENT_A|10=052|8=FIX.4.2|9=58|35=0|34=26|49=FIXHUB|52=20260306-20:07:40.481|56=CLIENT_A|10=048|