8=FIX.4.2|9=68|35=A|34=1|49=BROKER1|52=20260302-18:24:00.197|56=FIXHUB|98=0|108=30|10=189|8=FIX.4.2|9=185|35=8|34=2|49=BROKER1|52=20260302-18:24:00.264|56=FIXHUB|6=100|11=ORDER-1|14=0|17=EXEC-253052255131600|20=0|37=ORD-1772475840262|39=0|54=1|55=AAPL|60=20260302-18:24:00.264|150=0|151=100|10=233|8=FIX.4.2|9=185|35=8|34=3|49=BROKER1|52=20260302-18:24:00.267|56=FIXHUB|6=100|11=ORDER-1|14=100|17=EXEC-253052258275700|20=0|37=ORD-1772475840267|39=2|54=1|55=AAPL|60=20260302-18:24:00.267|150=2|151=0|10=006|8=FIX.4.2|9=56|35=0|34=4|49=BROKER1|52=20260302-18:24:30.801|56=FIXHUB|10=142|8=FIX.4.2|9=56|35=0|34=5|49=BROKER1|52=20260302-18:25:00.798|56=FIXHUB|10=156|8=FIX.4.2|9=56|35=0|34=6|49=BROKER1|52=20260302-18:25:30.790|56=FIXHUB|10=152|8=FIX.4.2|9=56|35=0|34=7|49=BROKER1|52=20260302-18:26:00.790|56=FIXHUB|10=151|8=FIX.4.2|9=56|35=0|34=8|49=BROKER1|52=20260302-18:26:30.800|56=FIXHUB|10=147|8=FIX.4.2|9=56|35=0|34=9|49=BROKER1|52=20260302-18:27:01.174|56=FIXHUB|10=151|8=FIX.4.2|9=57|35=0|34=10|49=BROKER1|52=20260302-18:27:31.175|56=FIXHUB|10=196|8=FIX.4.2|9=57|35=0|34=11|49=BROKER1|52=20260302-18:28:01.175|56=FIXHUB|10=195|8=FIX.4.2|9=57|35=0|34=12|49=BROKER1|52=20260302-18:28:31.175|56=FIXHUB|10=199|8=FIX.4.2|9=57|35=0|34=13|49=BROKER1|52=20260302-18:29:01.175|56=FIXHUB|10=198|8=FIX.4.2|9=57|35=0|34=14|49=BROKER1|52=20260302-18:29:31.175|56=FIXHUB|10=202|8=FIX.4.2|9=57|35=0|34=15|49=BROKER1|52=20260302-18:30:01.187|56=FIXHUB|10=195|8=FIX.4.2|9=57|35=0|34=16|49=BROKER1|52=20260302-18:30:31.786|56=FIXHUB|10=204|8=FIX.4.2|9=57|35=0|34=17|49=BROKER1|52=20260302-18:31:01.790|56=FIXHUB|10=198|8=FIX.4.2|9=57|35=0|34=18|49=BROKER1|52=20260302-18:31:31.786|56=FIXHUB|10=207|8=FIX.4.2|9=57|35=0|34=19|49=BROKER1|52=20260302-18:32:01.785|56=FIXHUB|10=205|8=FIX.4.2|9=57|35=0|34=20|49=BROKER1|52=20260302-18:32:31.788|56=FIXHUB|10=203|8=FIX.4.2|9=57|35=0|34=21|49=BROKER1|52=20260302-18:33:01.796|56=FIXHUB|10=201|8=FIX.4.2|9=57|35=0|34=22|49=BROKER1|52=20260302-18:33:31.794|56=FIXHUB|10=203|8=FIX.4.2|9=57|35=0|34=23|49=BROKER1|52=20260302-18:34:01.795|56=FIXHUB|10=203|8=FIX.4.2|9=57|35=0|34=24|49=BROKER1|52=20260302-18:34:31.791|56=FIXHUB|10=203|8=FIX.4.2|9=57|35=0|34=25|49=BROKER1|52=20260302-18:35:01.792|56=FIXHUB|10=203|8=FIX.4.2|9=57|35=0|34=26|49=BROKER1|52=20260302-18:35:31.791|56=FIXHUB|10=206|8=FIX.4.2|9=57|35=0|34=27|49=BROKER1|52=20260302-18:36:01.800|56=FIXHUB|10=196|8=FIX.4.2|9=57|35=0|34=28|49=BROKER1|52=20260302-18:36:32.184|56=FIXHUB|10=206|8=FIX.4.2|9=57|35=0|34=29|49=BROKER1|52=20260302-18:37:02.176|56=FIXHUB|10=206|8=FIX.4.2|9=57|35=0|34=30|49=BROKER1|52=20260302-18:37:32.183|56=FIXHUB|10=199|8=FIX.4.2|9=57|35=0|34=31|49=BROKER1|52=20260302-18:38:02.179|56=FIXHUB|10=203|8=FIX.4.2|9=57|35=0|34=32|49=BROKER1|52=20260302-18:38:32.178|56=FIXHUB|10=206|8=FIX.4.2|9=57|35=0|34=33|49=BROKER1|52=20260302-18:39:02.177|56=FIXHUB|10=204|8=FIX.4.2|9=57|35=0|34=34|49=BROKER1|52=20260302-18:39:32.180|56=FIXHUB|10=202|8=FIX.4.2|9=57|35=0|34=35|49=BROKER1|52=20260302-18:40:02.175|56=FIXHUB|10=196|8=FIX.4.2|9=57|35=0|34=36|49=BROKER1|52=20260302-18:40:32.179|56=FIXHUB|10=204|8=FIX.4.2|9=57|35=0|34=37|49=BROKER1|52=20260302-18:41:02.184|56=FIXHUB|10=199|8=FIX.4.2|9=57|35=0|34=38|49=BROKER1|52=20260302-18:41:32.189|56=FIXHUB|10=208|8=FIX.4.2|9=57|35=0|34=39|49=BROKER1|52=20260302-18:42:02.187|56=FIXHUB|10=205|8=FIX.4.2|9=57|35=0|34=40|49=BROKER1|52=20260302-18:42:32.189|56=FIXHUB|10=202|8=FIX.4.2|9=57|35=0|34=41|49=BROKER1|52=20260302-18:43:02.793|56=FIXHUB|10=202|8=FIX.4.2|9=57|35=0|34=42|49=BROKER1|52=20260302-18:43:32.797|56=FIXHUB|10=210|8=FIX.4.2|9=57|35=0|34=43|49=BROKER1|52=20260302-18:44:03.174|56=FIXHUB|10=199|8=FIX.4.2|9=57|35=0|34=44|49=BROKER1|52=20260302-18:44:33.179|56=FIXHUB|10=208|8=FIX.4.2|9=57|35=0|34=45|49=BROKER1|52=20260302-18:45:03.186|56=FIXHUB|10=205|8=FIX.4.2|9=57|35=0|34=46|49=BROKER1|52=20260302-18:45:33.178|56=FIXHUB|10=210|8=FIX.4.2|9=57|35=0|34=47|49=BROKER1|52=20260302-18:46:03.178|56=FIXHUB|10=209|8=FIX.4.2|9=57|35=0|34=48|49=BROKER1|52=20260302-18:46:33.175|56=FIXHUB|10=210|8=FIX.4.2|9=57|35=0|34=49|49=BROKER1|52=20260302-18:47:03.187|56=FIXHUB|10=212|8=FIX.4.2|9=57|35=0|34=50|49=BROKER1|52=20260302-18:47:33.797|56=FIXHUB|10=214|8=FIX.4.2|9=57|35=0|34=51|49=BROKER1|52=20260302-18:48:03.790|56=FIXHUB|10=206|8=FIX.4.2|9=57|35=0|34=52|49=BROKER1|52=20260302-18:48:33.801|56=FIXHUB|10=203|8=FIX.4.2|9=57|35=0|34=53|49=BROKER1|52=20260302-18:49:04.175|56=FIXHUB|10=207|8=FIX.4.2|9=57|35=0|34=54|49=BROKER1|52=20260302-18:49:34.183|56=FIXHUB|10=210|8=FIX.4.2|9=57|35=0|34=55|49=BROKER1|52=20260302-18:50:04.189|56=FIXHUB|10=206|8=FIX.4.2|9=57|35=0|34=56|49=BROKER1|52=20260302-18:50:34.180|56=FIXHUB|10=201|8=FIX.4.2|9=57|35=0|34=57|49=BROKER1|52=20260302-18:51:04.182|56=FIXHUB|10=202|8=FIX.4.2|9=57|35=0|34=58|49=BROKER1|52=20260302-18:51:34.175|56=FIXHUB|10=208|8=FIX.4.2|9=57|35=0|34=59|49=BROKER1|52=20260302-18:52:04.189|56=FIXHUB|10=212|8=FIX.4.2|9=57|35=0|34=60|49=BROKER1|52=20260302-18:52:34.183|56=FIXHUB|10=201|8=FIX.4.2|9=57|35=0|34=61|49=BROKER1|52=20260302-18:53:04.175|56=FIXHUB|10=201|8=FIX.4.2|9=57|35=0|34=62|49=BROKER1|52=20260302-18:53:34.175|56=FIXHUB|10=205|8=FIX.4.2|9=57|35=0|34=63|49=BROKER1|52=20260302-18:54:04.179|56=FIXHUB|10=208|8=FIX.4.2|9=57|35=0|34=64|49=BROKER1|52=20260302-18:54:34.183|56=FIXHUB|10=207|8=FIX.4.2|9=57|35=0|34=65|49=BROKER1|52=20260302-18:55:04.174|56=FIXHUB|10=206|8=FIX.4.2|9=57|35=0|34=66|49=BROKER1|52=20260302-18:55:34.174|56=FIXHUB|10=210|8=FIX.4.2|9=69|35=A|34=67|49=BROKER1|52=20260302-20:32:19.099|56=FIXHUB|98=0|108=30|10=253|