8=FIX.4.2|9=68|35=A|34=1|49=BROKER1|52=20260228-19:26:36.703|56=FIXHUB|98=0|108=30|10=201|8=FIX.4.2|9=122|35=D|34=2|49=BROKER1|52=20260228-19:26:36.740|56=FIXHUB|11=ORDER-1|21=1|38=100|40=1|54=1|55=AAPL|60=20260228-19:26:36.738|10=185|8=FIX.4.2|9=56|35=0|34=3|49=BROKER1|52=20260228-19:27:07.470|56=FIXHUB|10=158|8=FIX.4.2|9=56|35=0|34=4|49=BROKER1|52=20260228-19:27:37.470|56=FIXHUB|10=162|8=FIX.4.2|9=56|35=0|34=5|49=BROKER1|52=20260228-19:28:07.465|56=FIXHUB|10=165|8=FIX.4.2|9=56|35=0|34=6|49=BROKER1|52=20260228-19:28:37.466|56=FIXHUB|10=170|