8=FIX.4.2|9=68|35=A|34=1|49=BROKER1|52=20260312-17:13:38.277|56=FIXHUB|98=0|108=30|10=197|8=FIX.4.2|9=56|35=0|34=2|49=BROKER1|52=20260312-17:14:08.894|56=FIXHUB|10=156|