8=FIX.4.2|9=68|35=A|34=1|49=CLIENT1|52=20260228-12:48:02.194|56=FIXHUB|98=0|108=30|10=189|8=FIX.4.2|9=117|35=D|34=2|49=CLIENT1|52=20260228-12:48:02.297|56=FIXHUB|11=ORDER-1|38=100|40=1|54=1|55=AAPL|60=20260228-12:48:02.295|10=214|8=FIX.4.2|9=56|35=0|34=3|49=CLIENT1|52=20260228-12:48:32.316|56=FIXHUB|10=145|8=FIX.4.2|9=56|35=0|34=4|49=CLIENT1|52=20260228-12:49:02.309|56=FIXHUB|10=146|8=FIX.4.2|9=56|35=0|34=5|49=CLIENT1|52=20260228-12:49:32.311|56=FIXHUB|10=143|8=FIX.4.2|9=56|35=0|34=6|49=CLIENT1|52=20260228-12:50:02.306|56=FIXHUB|10=137|8=FIX.4.2|9=56|35=0|34=7|49=CLIENT1|52=20260228-12:50:32.315|56=FIXHUB|10=141|8=FIX.4.2|9=56|35=0|34=8|49=CLIENT1|52=20260228-12:51:02.313|56=FIXHUB|10=138|8=FIX.4.2|9=68|35=A|34=9|49=CLIENT1|52=20260228-12:54:32.174|56=FIXHUB|98=0|108=30|10=195|8=FIX.4.2|9=106|35=5|34=10|49=CLIENT1|52=20260228-12:54:32.257|56=FIXHUB|58=MsgSeqNum too low, expecting 9 but received 1|10=143|