8=FIX.4.2|9=68|35=A|34=1|49=CLIENT1|52=20260228-12:57:05.827|56=FIXHUB|98=0|108=30|10=195|8=FIX.4.2|9=122|35=D|34=2|49=CLIENT1|52=20260228-12:57:05.924|56=FIXHUB|11=ORDER-1|21=1|38=100|40=1|54=1|55=AAPL|60=20260228-12:57:05.922|10=164|8=FIX.4.2|9=56|35=0|34=3|49=CLIENT1|52=20260228-12:57:36.029|56=FIXHUB|10=150|8=FIX.4.2|9=56|35=0|34=4|49=CLIENT1|52=20260228-12:58:06.020|56=FIXHUB|10=140|8=FIX.4.2|9=68|35=A|34=5|49=CLIENT1|52=20260228-13:01:46.130|56=FIXHUB|98=0|108=30|10=181|8=FIX.4.2|9=105|35=5|34=6|49=CLIENT1|52=20260228-13:01:46.202|56=FIXHUB|58=MsgSeqNum too low, expecting 4 but received 1|10=082|8=FIX.4.2|9=68|35=A|34=7|49=CLIENT1|52=20260228-13:02:16.120|56=FIXHUB|98=0|108=30|10=180|8=FIX.4.2|9=68|35=A|34=8|49=CLIENT1|52=20260228-13:02:46.120|56=FIXHUB|98=0|108=30|10=184|8=FIX.4.2|9=68|35=A|34=9|49=CLIENT1|52=20260228-13:03:16.119|56=FIXHUB|98=0|108=30|10=191|8=FIX.4.2|9=69|35=A|34=10|49=CLIENT1|52=20260228-13:03:46.119|56=FIXHUB|98=0|108=30|10=235|8=FIX.4.2|9=69|35=A|34=11|49=CLIENT1|52=20260228-13:04:16.119|56=FIXHUB|98=0|108=30|10=234|8=FIX.4.2|9=69|35=A|34=12|49=CLIENT1|52=20260228-13:04:46.119|56=FIXHUB|98=0|108=30|10=238|8=FIX.4.2|9=69|35=A|34=13|49=CLIENT1|52=20260228-13:05:16.120|56=FIXHUB|98=0|108=30|10=229|.4.2|9=57|35=0|34=14|49=CLIENT1|52=20260228-13:05:14.857|56=FIXHUB|10=200|IENT1|52=20260228-13:04:45.775|56=FIXHUB|98=0|108=30|10=247|8=FIX.4.2|9=69|35=A|34=15|49=CLIENT1|52=20260228-13:05:15.775|56=FIXHUB|98=0|108=30|10=246|8=FIX.4.2|9=69|35=A|34=14|49=CLIENT1|52=20260228-17:56:10.872|56=FIXHUB|98=0|108=30|10=248|8=FIX.4.2|9=57|35=5|34=15|49=CLIENT1|52=20260228-17:56:10.910|56=FIXHUB|10=202|