8=FIX.4.2|9=68|35=A|34=1|49=CLIENT1|52=20260312-17:13:38.242|56=FIXHUB|98=0|108=30|10=183|8=FIX.4.2|9=122|35=D|34=2|49=CLIENT1|52=20260312-17:13:38.322|56=FIXHUB|11=ORDER-1|21=1|38=100|40=1|54=1|55=AAPL|60=20260312-17:13:38.318|10=149|8=FIX.4.2|9=56|35=0|34=3|49=CLIENT1|52=20260312-17:14:08.893|56=FIXHUB|10=150|