8=FIX.4.2|9=68|35=A|34=1|49=CLIENT1|52=20260302-18:24:00.164|56=FIXHUB|98=0|108=30|10=177|8=FIX.4.2|9=122|35=D|34=2|49=CLIENT1|52=20260302-18:24:00.251|56=FIXHUB|11=ORDER-1|21=1|38=100|40=1|54=1|55=AAPL|60=20260302-18:24:00.249|10=135|8=FIX.4.2|9=56|35=0|34=3|49=CLIENT1|52=20260302-18:24:30.801|56=FIXHUB|10=135|8=FIX.4.2|9=56|35=0|34=4|49=CLIENT1|52=20260302-18:25:00.798|56=FIXHUB|10=149|8=FIX.4.2|9=56|35=0|34=5|49=CLIENT1|52=20260302-18:25:30.790|56=FIXHUB|10=145|8=FIX.4.2|9=56|35=0|34=6|49=CLIENT1|52=20260302-18:26:00.790|56=FIXHUB|10=144|8=FIX.4.2|9=56|35=0|34=7|49=CLIENT1|52=20260302-18:26:30.798|56=FIXHUB|10=156|8=FIX.4.2|9=56|35=0|34=8|49=CLIENT1|52=20260302-18:27:01.128|56=FIXHUB|10=143|8=FIX.4.2|9=56|35=0|34=9|49=CLIENT1|52=20260302-18:27:31.128|56=FIXHUB|10=147|8=FIX.4.2|9=57|35=0|34=10|49=CLIENT1|52=20260302-18:28:01.129|56=FIXHUB|10=187|8=FIX.4.2|9=57|35=0|34=11|49=CLIENT1|52=20260302-18:28:31.129|56=FIXHUB|10=191|8=FIX.4.2|9=57|35=0|34=12|49=CLIENT1|52=20260302-18:29:01.128|56=FIXHUB|10=189|8=FIX.4.2|9=57|35=0|34=13|49=CLIENT1|52=20260302-18:29:31.127|56=FIXHUB|10=192|8=FIX.4.2|9=57|35=0|34=14|49=CLIENT1|52=20260302-18:30:01.140|56=FIXHUB|10=177|8=FIX.4.2|9=57|35=0|34=15|49=CLIENT1|52=20260302-18:30:31.786|56=FIXHUB|10=197|8=FIX.4.2|9=57|35=0|34=16|49=CLIENT1|52=20260302-18:31:01.789|56=FIXHUB|10=199|8=FIX.4.2|9=57|35=0|34=17|49=CLIENT1|52=20260302-18:31:31.786|56=FIXHUB|10=200|8=FIX.4.2|9=57|35=0|34=18|49=CLIENT1|52=20260302-18:32:01.786|56=FIXHUB|10=199|8=FIX.4.2|9=57|35=0|34=19|49=CLIENT1|52=20260302-18:32:31.789|56=FIXHUB|10=206|8=FIX.4.2|9=57|35=0|34=20|49=CLIENT1|52=20260302-18:33:01.796|56=FIXHUB|10=194|8=FIX.4.2|9=57|35=0|34=21|49=CLIENT1|52=20260302-18:33:31.794|56=FIXHUB|10=196|8=FIX.4.2|9=57|35=0|34=22|49=CLIENT1|52=20260302-18:34:01.795|56=FIXHUB|10=196|8=FIX.4.2|9=57|35=0|34=23|49=CLIENT1|52=20260302-18:34:31.791|56=FIXHUB|10=196|8=FIX.4.2|9=57|35=0|34=24|49=CLIENT1|52=20260302-18:35:01.792|56=FIXHUB|10=196|8=FIX.4.2|9=57|35=0|34=25|49=CLIENT1|52=20260302-18:35:31.791|56=FIXHUB|10=199|8=FIX.4.2|9=57|35=0|34=26|49=CLIENT1|52=20260302-18:36:01.800|56=FIXHUB|10=189|8=FIX.4.2|9=57|35=0|34=27|49=CLIENT1|52=20260302-18:36:32.138|56=FIXHUB|10=198|8=FIX.4.2|9=57|35=0|34=28|49=CLIENT1|52=20260302-18:37:02.799|56=FIXHUB|10=210|8=FIX.4.2|9=57|35=0|34=29|49=CLIENT1|52=20260302-18:37:32.791|56=FIXHUB|10=206|8=FIX.4.2|9=57|35=0|34=30|49=CLIENT1|52=20260302-18:38:02.790|56=FIXHUB|10=195|8=FIX.4.2|9=57|35=0|34=31|49=CLIENT1|52=20260302-18:38:32.785|56=FIXHUB|10=203|8=FIX.4.2|9=57|35=0|34=32|49=CLIENT1|52=20260302-18:39:02.798|56=FIXHUB|10=206|8=FIX.4.2|9=57|35=0|34=33|49=CLIENT1|52=20260302-18:39:32.797|56=FIXHUB|10=209|8=FIX.4.2|9=57|35=0|34=34|49=CLIENT1|52=20260302-18:40:02.795|56=FIXHUB|10=197|8=FIX.4.2|9=57|35=0|34=35|49=CLIENT1|52=20260302-18:40:32.790|56=FIXHUB|10=196|8=FIX.4.2|9=57|35=0|34=36|49=CLIENT1|52=20260302-18:41:02.798|56=FIXHUB|10=203|8=FIX.4.2|9=57|35=0|34=37|49=CLIENT1|52=20260302-18:41:32.793|56=FIXHUB|10=202|8=FIX.4.2|9=57|35=0|34=38|49=CLIENT1|52=20260302-18:42:02.788|56=FIXHUB|10=205|8=FIX.4.2|9=57|35=0|34=39|49=CLIENT1|52=20260302-18:42:32.799|56=FIXHUB|10=211|8=FIX.4.2|9=57|35=0|34=40|49=CLIENT1|52=20260302-18:43:02.793|56=FIXHUB|10=195|8=FIX.4.2|9=57|35=0|34=41|49=CLIENT1|52=20260302-18:43:32.797|56=FIXHUB|10=203|8=FIX.4.2|9=57|35=0|34=42|49=CLIENT1|52=20260302-18:44:03.139|56=FIXHUB|10=193|8=FIX.4.2|9=57|35=0|34=43|49=CLIENT1|52=20260302-18:44:33.132|56=FIXHUB|10=190|8=FIX.4.2|9=57|35=0|34=44|49=CLIENT1|52=20260302-18:45:03.140|56=FIXHUB|10=188|8=FIX.4.2|9=57|35=0|34=45|49=CLIENT1|52=20260302-18:45:33.132|56=FIXHUB|10=193|8=FIX.4.2|9=57|35=0|34=46|49=CLIENT1|52=20260302-18:46:03.132|56=FIXHUB|10=192|8=FIX.4.2|9=57|35=0|34=47|49=CLIENT1|52=20260302-18:46:33.129|56=FIXHUB|10=202|8=FIX.4.2|9=57|35=0|34=48|49=CLIENT1|52=20260302-18:47:03.139|56=FIXHUB|10=202|8=FIX.4.2|9=57|35=0|34=49|49=CLIENT1|52=20260302-18:47:33.131|56=FIXHUB|10=198|8=FIX.4.2|9=57|35=0|34=50|49=CLIENT1|52=20260302-18:48:03.140|56=FIXHUB|10=188|8=FIX.4.2|9=57|35=0|34=51|49=CLIENT1|52=20260302-18:48:33.138|56=FIXHUB|10=199|8=FIX.4.2|9=57|35=0|34=52|49=CLIENT1|52=20260302-18:49:03.135|56=FIXHUB|10=195|8=FIX.4.2|9=57|35=0|34=53|49=CLIENT1|52=20260302-18:49:33.140|56=FIXHUB|10=195|8=FIX.4.2|9=57|35=0|34=54|49=CLIENT1|52=20260302-18:50:03.139|56=FIXHUB|10=193|8=FIX.4.2|9=57|35=0|34=55|49=CLIENT1|52=20260302-18:50:34.129|56=FIXHUB|10=197|8=FIX.4.2|9=57|35=0|34=56|49=CLIENT1|52=20260302-18:51:04.135|56=FIXHUB|10=193|8=FIX.4.2|9=57|35=0|34=57|49=CLIENT1|52=20260302-18:51:34.140|56=FIXHUB|10=193|8=FIX.4.2|9=57|35=0|34=58|49=CLIENT1|52=20260302-18:52:04.791|56=FIXHUB|10=204|8=FIX.4.2|9=57|35=0|34=59|49=CLIENT1|52=20260302-18:52:34.786|56=FIXHUB|10=212|8=FIX.4.2|9=57|35=0|34=60|49=CLIENT1|52=20260302-18:53:04.801|56=FIXHUB|10=190|8=FIX.4.2|9=57|35=0|34=61|49=CLIENT1|52=20260302-18:53:34.794|56=FIXHUB|10=205|8=FIX.4.2|9=57|35=0|34=62|49=CLIENT1|52=20260302-18:54:04.791|56=FIXHUB|10=201|8=FIX.4.2|9=57|35=0|34=63|49=CLIENT1|52=20260302-18:54:34.802|56=FIXHUB|10=198|8=FIX.4.2|9=57|35=0|34=64|49=CLIENT1|52=20260302-18:55:05.128|56=FIXHUB|10=199|8=FIX.4.2|9=57|35=0|34=65|49=CLIENT1|52=20260302-18:55:35.127|56=FIXHUB|10=202|8=FIX.4.2|9=69|35=A|34=66|49=CLIENT1|52=20260302-20:32:19.070|56=FIXHUB|98=0|108=30|10=235|8=FIX.4.2|9=123|35=D|34=67|49=CLIENT1|52=20260302-20:32:19.131|56=FIXHUB|11=ORDER-1|21=1|38=100|40=1|54=1|55=AAPL|60=20260302-20:32:19.128|10=192|