8=FIX.4.2|9=68|35=A|34=1|49=FIXHUB|52=20260312-17:13:38.292|56=BROKER1|98=0|108=30|10=194|8=FIX.4.2|9=56|35=0|34=2|49=FIXHUB|52=20260312-17:14:08.890|56=BROKER1|10=152|