8=FIX.4.2|9=68|35=A|34=1|49=FIXHUB|52=20260302-18:24:00.206|56=CLIENT1|98=0|108=30|10=174|8=FIX.4.2|9=185|35=8|34=2|49=FIXHUB|52=20260302-18:24:00.266|56=CLIENT1|6=100|11=ORDER-1|14=0|17=EXEC-253052255131600|20=0|37=ORD-1772475840262|39=0|54=1|55=AAPL|60=20260302-18:24:00.264|150=0|151=100|10=229|8=FIX.4.2|9=185|35=8|34=3|49=FIXHUB|52=20260302-18:24:00.269|56=CLIENT1|6=100|11=ORDER-1|14=100|17=EXEC-253052258275700|20=0|37=ORD-1772475840267|39=2|54=1|55=AAPL|60=20260302-18:24:00.267|150=2|151=0|10=002|8=FIX.4.2|9=56|35=0|34=4|49=FIXHUB|52=20260302-18:24:30.796|56=CLIENT1|10=149|8=FIX.4.2|9=56|35=0|34=5|49=FIXHUB|52=20260302-18:25:00.794|56=CLIENT1|10=146|8=FIX.4.2|9=56|35=0|34=6|49=FIXHUB|52=20260302-18:25:30.785|56=CLIENT1|10=150|8=FIX.4.2|9=56|35=0|34=7|49=FIXHUB|52=20260302-18:26:00.789|56=CLIENT1|10=153|8=FIX.4.2|9=56|35=0|34=8|49=FIXHUB|52=20260302-18:26:30.795|56=CLIENT1|10=154|8=FIX.4.2|9=56|35=0|34=9|49=FIXHUB|52=20260302-18:27:01.134|56=CLIENT1|10=141|8=FIX.4.2|9=57|35=0|34=10|49=FIXHUB|52=20260302-18:27:31.129|56=CLIENT1|10=189|8=FIX.4.2|9=57|35=0|34=11|49=FIXHUB|52=20260302-18:28:01.130|56=CLIENT1|10=180|8=FIX.4.2|9=57|35=0|34=12|49=FIXHUB|52=20260302-18:28:31.133|56=CLIENT1|10=187|8=FIX.4.2|9=57|35=0|34=13|49=FIXHUB|52=20260302-18:29:01.133|56=CLIENT1|10=186|8=FIX.4.2|9=57|35=0|34=14|49=FIXHUB|52=20260302-18:29:31.132|56=CLIENT1|10=189|8=FIX.4.2|9=57|35=0|34=15|49=FIXHUB|52=20260302-18:30:01.149|56=CLIENT1|10=187|8=FIX.4.2|9=57|35=0|34=16|49=FIXHUB|52=20260302-18:30:31.785|56=CLIENT1|10=197|8=FIX.4.2|9=57|35=0|34=17|49=FIXHUB|52=20260302-18:31:01.785|56=CLIENT1|10=196|8=FIX.4.2|9=57|35=0|34=18|49=FIXHUB|52=20260302-18:31:31.785|56=CLIENT1|10=200|8=FIX.4.2|9=57|35=0|34=19|49=FIXHUB|52=20260302-18:32:01.785|56=CLIENT1|10=199|8=FIX.4.2|9=57|35=0|34=20|49=FIXHUB|52=20260302-18:32:31.787|56=CLIENT1|10=196|8=FIX.4.2|9=57|35=0|34=21|49=FIXHUB|52=20260302-18:33:01.794|56=CLIENT1|10=193|8=FIX.4.2|9=57|35=0|34=22|49=FIXHUB|52=20260302-18:33:31.793|56=CLIENT1|10=196|8=FIX.4.2|9=57|35=0|34=23|49=FIXHUB|52=20260302-18:34:01.794|56=CLIENT1|10=196|8=FIX.4.2|9=57|35=0|34=24|49=FIXHUB|52=20260302-18:34:31.789|56=CLIENT1|10=204|8=FIX.4.2|9=57|35=0|34=25|49=FIXHUB|52=20260302-18:35:01.788|56=CLIENT1|10=202|8=FIX.4.2|9=57|35=0|34=26|49=FIXHUB|52=20260302-18:35:31.789|56=CLIENT1|10=207|8=FIX.4.2|9=57|35=0|34=27|49=FIXHUB|52=20260302-18:36:01.799|56=CLIENT1|10=207|8=FIX.4.2|9=57|35=0|34=28|49=FIXHUB|52=20260302-18:36:32.139|56=CLIENT1|10=200|8=FIX.4.2|9=57|35=0|34=29|49=FIXHUB|52=20260302-18:37:02.794|56=CLIENT1|10=206|8=FIX.4.2|9=57|35=0|34=30|49=FIXHUB|52=20260302-18:37:32.788|56=CLIENT1|10=204|8=FIX.4.2|9=57|35=0|34=31|49=FIXHUB|52=20260302-18:38:02.786|56=CLIENT1|10=201|8=FIX.4.2|9=57|35=0|34=32|49=FIXHUB|52=20260302-18:38:32.785|56=CLIENT1|10=204|8=FIX.4.2|9=57|35=0|34=33|49=FIXHUB|52=20260302-18:39:02.794|56=CLIENT1|10=203|8=FIX.4.2|9=57|35=0|34=34|49=FIXHUB|52=20260302-18:39:32.793|56=CLIENT1|10=206|8=FIX.4.2|9=57|35=0|34=35|49=FIXHUB|52=20260302-18:40:02.795|56=CLIENT1|10=198|8=FIX.4.2|9=57|35=0|34=36|49=FIXHUB|52=20260302-18:40:32.786|56=CLIENT1|10=202|8=FIX.4.2|9=57|35=0|34=37|49=FIXHUB|52=20260302-18:41:02.794|56=CLIENT1|10=200|8=FIX.4.2|9=57|35=0|34=38|49=FIXHUB|52=20260302-18:41:32.793|56=CLIENT1|10=203|8=FIX.4.2|9=57|35=0|34=39|49=FIXHUB|52=20260302-18:42:02.785|56=CLIENT1|10=203|8=FIX.4.2|9=57|35=0|34=40|49=FIXHUB|52=20260302-18:42:32.796|56=CLIENT1|10=200|8=FIX.4.2|9=57|35=0|34=41|49=FIXHUB|52=20260302-18:43:02.792|56=CLIENT1|10=195|8=FIX.4.2|9=57|35=0|34=42|49=FIXHUB|52=20260302-18:43:32.793|56=CLIENT1|10=200|8=FIX.4.2|9=57|35=0|34=43|49=FIXHUB|52=20260302-18:44:02.785|56=CLIENT1|10=200|8=FIX.4.2|9=57|35=0|34=44|49=FIXHUB|52=20260302-18:44:32.793|56=CLIENT1|10=203|8=FIX.4.2|9=57|35=0|34=45|49=FIXHUB|52=20260302-18:45:02.799|56=CLIENT1|10=208|8=FIX.4.2|9=57|35=0|34=46|49=FIXHUB|52=20260302-18:45:32.795|56=CLIENT1|10=208|8=FIX.4.2|9=57|35=0|34=47|49=FIXHUB|52=20260302-18:46:02.796|56=CLIENT1|10=208|8=FIX.4.2|9=57|35=0|34=48|49=FIXHUB|52=20260302-18:46:33.133|56=CLIENT1|10=198|8=FIX.4.2|9=57|35=0|34=49|49=FIXHUB|52=20260302-18:47:03.142|56=CLIENT1|10=197|8=FIX.4.2|9=57|35=0|34=50|49=FIXHUB|52=20260302-18:47:33.794|56=CLIENT1|10=205|8=FIX.4.2|9=57|35=0|34=51|49=FIXHUB|52=20260302-18:48:03.788|56=CLIENT1|10=207|8=FIX.4.2|9=57|35=0|34=52|49=FIXHUB|52=20260302-18:48:33.798|56=CLIENT1|10=212|8=FIX.4.2|9=57|35=0|34=53|49=FIXHUB|52=20260302-18:49:04.790|56=CLIENT1|10=204|8=FIX.4.2|9=57|35=0|34=54|49=FIXHUB|52=20260302-18:49:34.791|56=CLIENT1|10=209|8=FIX.4.2|9=57|35=0|34=55|49=FIXHUB|52=20260302-18:50:04.799|56=CLIENT1|10=207|8=FIX.4.2|9=57|35=0|34=56|49=FIXHUB|52=20260302-18:50:34.797|56=CLIENT1|10=209|8=FIX.4.2|9=57|35=0|34=57|49=FIXHUB|52=20260302-18:51:04.789|56=CLIENT1|10=209|8=FIX.4.2|9=57|35=0|34=58|49=FIXHUB|52=20260302-18:51:34.799|56=CLIENT1|10=214|8=FIX.4.2|9=57|35=0|34=59|49=FIXHUB|52=20260302-18:52:04.791|56=CLIENT1|10=205|8=FIX.4.2|9=57|35=0|34=60|49=FIXHUB|52=20260302-18:52:34.786|56=CLIENT1|10=204|8=FIX.4.2|9=57|35=0|34=61|49=FIXHUB|52=20260302-18:53:04.798|56=CLIENT1|10=206|8=FIX.4.2|9=57|35=0|34=62|49=FIXHUB|52=20260302-18:53:34.793|56=CLIENT1|10=205|8=FIX.4.2|9=57|35=0|34=63|49=FIXHUB|52=20260302-18:54:04.790|56=CLIENT1|10=201|8=FIX.4.2|9=57|35=0|34=64|49=FIXHUB|52=20260302-18:54:34.799|56=CLIENT1|10=214|8=FIX.4.2|9=57|35=0|34=65|49=FIXHUB|52=20260302-18:55:05.128|56=CLIENT1|10=200|8=FIX.4.2|9=57|35=0|34=66|49=FIXHUB|52=20260302-18:55:35.129|56=CLIENT1|10=205|8=FIX.4.2|9=69|35=A|34=67|49=FIXHUB|52=20260302-20:32:19.106|56=CLIENT1|98=0|108=30|10=236|