8=FIX.4.2|9=68|35=A|34=1|49=CLIENT1|52=20260228-17:59:44.105|56=FIXHUB|98=0|108=30|10=194|8=FIX.4.2|9=122|35=D|34=2|49=CLIENT1|52=20260228-17:59:44.172|56=FIXHUB|11=ORDER-1|21=1|38=100|40=1|54=1|55=AAPL|60=20260228-17:59:44.170|10=174|8=FIX.4.2|9=56|35=0|34=3|49=CLIENT1|52=20260228-18:00:14.905|56=FIXHUB|10=143|8=FIX.4.2|9=56|35=0|34=4|49=CLIENT1|52=20260228-18:00:44.909|56=FIXHUB|10=151|8=FIX.4.2|9=56|35=0|34=5|49=CLIENT1|52=20260228-18:01:14.909|56=FIXHUB|10=150|8=FIX.4.2|9=56|35=0|34=6|49=CLIENT1|52=20260228-18:01:44.917|56=FIXHUB|10=153|8=FIX.4.2|9=56|35=0|34=7|49=CLIENT1|52=20260228-18:02:14.913|56=FIXHUB|10=148|8=FIX.4.2|9=56|35=0|34=8|49=CLIENT1|52=20260228-18:02:44.918|56=FIXHUB|10=157|8=FIX.4.2|9=56|35=0|34=9|49=CLIENT1|52=20260228-18:03:15.105|56=FIXHUB|10=145|8=FIX.4.2|9=57|35=0|34=10|49=CLIENT1|52=20260228-18:03:45.096|56=FIXHUB|10=198|8=FIX.4.2|9=57|35=0|34=11|49=CLIENT1|52=20260228-18:04:15.105|56=FIXHUB|10=188|8=FIX.4.2|9=57|35=0|34=12|49=CLIENT1|52=20260228-18:04:45.906|56=FIXHUB|10=201|8=FIX.4.2|9=57|35=0|34=13|49=CLIENT1|52=20260228-18:05:15.908|56=FIXHUB|10=202|8=FIX.4.2|9=57|35=0|34=14|49=CLIENT1|52=20260228-18:05:45.904|56=FIXHUB|10=202|8=FIX.4.2|9=57|35=0|34=15|49=CLIENT1|52=20260228-18:06:15.905|56=FIXHUB|10=202|8=FIX.4.2|9=57|35=0|34=16|49=CLIENT1|52=20260228-18:06:45.908|56=FIXHUB|10=209|8=FIX.4.2|9=57|35=0|34=17|49=CLIENT1|52=20260228-18:07:15.905|56=FIXHUB|10=205|8=FIX.4.2|9=57|35=0|34=18|49=CLIENT1|52=20260228-18:07:45.908|56=FIXHUB|10=212|8=FIX.4.2|9=57|35=0|34=19|49=CLIENT1|52=20260228-18:08:15.906|56=FIXHUB|10=209|8=FIX.4.2|9=57|35=0|34=20|49=CLIENT1|52=20260228-18:08:45.904|56=FIXHUB|10=202|8=FIX.4.2|9=57|35=0|34=21|49=CLIENT1|52=20260228-18:09:15.907|56=FIXHUB|10=204|8=FIX.4.2|9=57|35=0|34=22|49=CLIENT1|52=20260228-18:09:45.908|56=FIXHUB|10=209|8=FIX.4.2|9=69|35=A|34=23|49=CLIENT1|52=20260228-18:10:53.356|56=FIXHUB|98=0|108=30|10=243|8=FIX.4.2|9=123|35=D|34=24|49=CLIENT1|52=20260228-18:10:53.415|56=FIXHUB|11=ORDER-1|21=1|38=100|40=1|54=1|55=AAPL|60=20260228-18:10:53.414|10=204|8=FIX.4.2|9=57|35=0|34=25|49=CLIENT1|52=20260228-18:11:24.164|56=FIXHUB|10=196|8=FIX.4.2|9=57|35=0|34=26|49=CLIENT1|52=20260228-18:11:54.176|56=FIXHUB|10=203|8=FIX.4.2|9=57|35=0|34=27|49=CLIENT1|52=20260228-18:12:24.351|56=FIXHUB|10=197|8=FIX.4.2|9=57|35=0|34=28|49=CLIENT1|52=20260228-18:12:54.349|56=FIXHUB|10=208|8=FIX.4.2|9=57|35=0|34=29|49=CLIENT1|52=20260228-18:13:24.350|56=FIXHUB|10=199|8=FIX.4.2|9=69|35=A|34=30|49=CLIENT1|52=20260228-18:13:52.591|56=FIXHUB|98=0|108=30|10=244|8=FIX.4.2|9=123|35=D|34=31|49=CLIENT1|52=20260228-18:13:52.652|56=FIXHUB|11=ORDER-1|21=1|38=100|40=1|54=1|55=AAPL|60=20260228-18:13:52.651|10=212|8=FIX.4.2|9=69|35=A|34=32|49=CLIENT1|52=20260228-18:32:12.548|56=FIXHUB|98=0|108=30|10=245|8=FIX.4.2|9=123|35=D|34=33|49=CLIENT1|52=20260228-18:32:12.604|56=FIXHUB|11=ORDER-1|21=1|38=100|40=1|54=1|55=AAPL|60=20260228-18:32:12.601|10=200|8=FIX.4.2|9=69|35=A|34=34|49=CLIENT1|52=20260228-18:32:26.384|56=FIXHUB|98=0|108=30|10=250|8=FIX.4.2|9=123|35=D|34=35|49=CLIENT1|52=20260228-18:32:26.436|56=FIXHUB|11=ORDER-1|21=1|38=100|40=1|54=1|55=AAPL|60=20260228-18:32:26.435|10=220|8=FIX.4.2|9=57|35=0|34=36|49=CLIENT1|52=20260228-18:32:57.180|56=FIXHUB|10=205|8=FIX.4.2|9=57|35=0|34=37|49=CLIENT1|52=20260228-18:33:27.178|56=FIXHUB|10=211|8=FIX.4.2|9=57|35=0|34=38|49=CLIENT1|52=20260228-18:33:57.181|56=FIXHUB|10=209|8=FIX.4.2|9=57|35=0|34=39|49=CLIENT1|52=20260228-18:34:27.182|56=FIXHUB|10=209|8=FIX.4.2|9=57|35=0|34=40|49=CLIENT1|52=20260228-18:34:57.178|56=FIXHUB|10=209|8=FIX.4.2|9=69|35=A|34=41|49=CLIENT1|52=20260228-18:35:07.992|56=FIXHUB|98=0|108=30|10=255|8=FIX.4.2|9=123|35=D|34=42|49=CLIENT1|52=20260228-18:35:08.052|56=FIXHUB|11=ORDER-1|21=1|38=100|40=1|54=1|55=AAPL|60=20260228-18:35:08.051|10=212|8=FIX.4.2|9=69|35=A|34=43|49=CLIENT1|52=20260228-18:35:34.655|56=FIXHUB|98=0|108=30|10=253|8=FIX.4.2|9=123|35=D|34=44|49=CLIENT1|52=20260228-18:35:34.714|56=FIXHUB|11=ORDER-1|21=1|38=100|40=1|54=1|55=AAPL|60=20260228-18:35:34.712|10=221|8=FIX.4.2|9=57|35=0|34=45|49=CLIENT1|52=20260228-18:36:05.453|56=FIXHUB|10=205|8=FIX.4.2|9=57|35=0|34=46|49=CLIENT1|52=20260228-18:36:35.456|56=FIXHUB|10=212|8=FIX.4.2|9=69|35=A|34=47|49=CLIENT1|52=20260228-18:37:01.124|56=FIXHUB|98=0|108=30|10=244|8=FIX.4.2|9=123|35=D|34=48|49=CLIENT1|52=20260228-18:37:01.186|56=FIXHUB|11=ORDER-1|21=1|38=100|40=1|54=1|55=AAPL|60=20260228-18:37:01.185|10=224|8=FIX.4.2|9=57|35=0|34=49|49=CLIENT1|52=20260228-18:37:31.918|56=FIXHUB|10=215|8=FIX.4.2|9=69|35=A|34=50|49=CLIENT1|52=20260228-18:37:44.603|56=FIXHUB|98=0|108=30|10=247|8=FIX.4.2|9=123|35=D|34=51|49=CLIENT1|52=20260228-18:37:44.662|56=FIXHUB|11=ORDER-1|21=1|38=100|40=1|54=1|55=AAPL|60=20260228-18:37:44.659|10=237|8=FIX.4.2|9=57|35=0|34=52|49=CLIENT1|52=20260228-18:38:15.410|56=FIXHUB|10=199|8=FIX.4.2|9=57|35=0|34=53|49=CLIENT1|52=20260228-18:38:45.407|56=FIXHUB|10=209|8=FIX.4.2|9=57|35=0|34=54|49=CLIENT1|52=20260228-18:39:15.413|56=FIXHUB|10=205|8=FIX.4.2|9=57|35=0|34=55|49=CLIENT1|52=20260228-18:39:45.408|56=FIXHUB|10=213|