8=FIX.4.2|9=68|35=A|34=1|49=CLIENT1|52=20260228-19:21:21.580|56=FIXHUB|98=0|108=30|10=187|8=FIX.4.2|9=122|35=D|34=2|49=CLIENT1|52=20260228-19:21:21.643|56=FIXHUB|11=ORDER-1|21=1|38=100|40=1|54=1|55=AAPL|60=20260228-19:21:21.640|10=151|8=FIX.4.2|9=68|35=A|34=3|49=CLIENT1|52=20260228-19:22:03.489|56=FIXHUB|98=0|108=30|10=198|8=FIX.4.2|9=122|35=D|34=4|49=CLIENT1|52=20260228-19:22:03.549|56=FIXHUB|11=ORDER-1|21=1|38=100|40=1|54=1|55=AAPL|60=20260228-19:22:03.547|10=166|8=FIX.4.2|9=56|35=0|34=5|49=CLIENT1|52=20260228-19:22:34.285|56=FIXHUB|10=153|8=FIX.4.2|9=56|35=0|34=6|49=CLIENT1|52=20260228-19:23:04.288|56=FIXHUB|10=155|8=FIX.4.2|9=56|35=0|34=7|49=CLIENT1|52=20260228-19:23:34.283|56=FIXHUB|10=154|8=FIX.4.2|9=56|35=0|34=8|49=CLIENT1|52=20260228-19:24:04.299|56=FIXHUB|10=160|8=FIX.4.2|9=56|35=0|34=9|49=CLIENT1|52=20260228-19:24:34.292|56=FIXHUB|10=157|8=FIX.4.2|9=57|35=0|34=10|49=CLIENT1|52=20260228-19:25:04.480|56=FIXHUB|10=195|8=FIX.4.2|9=57|35=0|34=11|49=CLIENT1|52=20260228-19:25:34.479|56=FIXHUB|10=207|8=FIX.4.2|9=57|35=0|34=12|49=CLIENT1|52=20260228-19:26:04.480|56=FIXHUB|10=198|8=FIX.4.2|9=69|35=A|34=13|49=CLIENT1|52=20260228-19:26:36.674|56=FIXHUB|98=0|108=30|10=254|8=FIX.4.2|9=123|35=D|34=14|49=CLIENT1|52=20260228-19:26:36.740|56=FIXHUB|11=ORDER-1|21=1|38=100|40=1|54=1|55=AAPL|60=20260228-19:26:36.738|10=231|8=FIX.4.2|9=57|35=0|34=15|49=CLIENT1|52=20260228-19:27:07.470|56=FIXHUB|10=204|8=FIX.4.2|9=57|35=0|34=16|49=CLIENT1|52=20260228-19:27:37.469|56=FIXHUB|10=216|8=FIX.4.2|9=57|35=0|34=17|49=CLIENT1|52=20260228-19:28:07.465|56=FIXHUB|10=211|8=FIX.4.2|9=57|35=0|34=18|49=CLIENT1|52=20260228-19:28:37.466|56=FIXHUB|10=216|