8=FIX.4.2|9=68|35=A|34=1|49=FIXHUB|52=20260228-13:01:46.193|56=CLIENT1|98=0|108=30|10=186|8=FIX.4.2|9=65|35=2|34=2|49=FIXHUB|52=20260228-13:01:46.196|56=CLIENT1|7=1|16=0|10=014|8=FIX.4.2|9=56|35=5|34=3|49=FIXHUB|52=20260228-13:01:46.206|56=CLIENT1|10=143|8=FIX.4.2|9=68|35=A|34=4|49=FIXHUB|52=20260228-13:02:13.934|56=CLIENT1|98=0|108=30|10=187|8=FIX.4.2|9=65|35=2|34=5|49=FIXHUB|52=20260228-13:02:13.936|56=CLIENT1|7=1|16=0|10=014|8=FIX.4.2|9=56|35=0|34=6|49=FIXHUB|52=20260228-13:02:44.112|56=CLIENT1|10=136|8=FIX.4.2|9=56|35=0|34=7|49=FIXHUB|52=20260228-13:03:14.107|56=CLIENT1|10=139|8=FIX.4.2|9=56|35=0|34=8|49=FIXHUB|52=20260228-13:03:44.101|56=CLIENT1|10=137|8=FIX.4.2|9=56|35=0|34=9|49=FIXHUB|52=20260228-13:04:14.115|56=CLIENT1|10=141|8=FIX.4.2|9=57|35=0|34=10|49=FIXHUB|52=20260228-13:04:44.111|56=CLIENT1|10=181|8=FIX.4.2|9=57|35=0|34=11|49=FIXHUB|52=20260228-13:05:14.102|56=CLIENT1|10=180|8=FIX.4.2|9=108|35=5|34=12|49=FIXHUB|52=20260228-17:56:10.909|56=CLIENT1|58=MsgSeqNum too low, expecting 15 but received 14|10=251|