8=FIX.4.2|9=68|35=A|34=1|49=FIXHUB|52=20260228-12:54:32.248|56=CLIENT1|98=0|108=30|10=189|8=FIX.4.2|9=56|35=5|34=2|49=FIXHUB|52=20260228-12:54:32.260|56=CLIENT1|10=144|