8=FIX.4.2|9=68|35=A|34=1|49=FIXHUB|52=20260228-19:26:36.713|56=BROKER1|98=0|108=30|10=202|8=FIX.4.2|9=122|35=D|34=2|49=FIXHUB|52=20260228-19:26:36.744|56=BROKER1|11=ORDER-1|21=1|38=100|40=1|54=1|55=AAPL|60=20260228-19:26:36.738|10=189|8=FIX.4.2|9=122|35=D|34=3|49=FIXHUB|52=20260228-19:26:36.745|56=BROKER1|11=ORDER-1|21=1|38=100|40=1|54=1|55=AAPL|60=20260228-19:26:36.738|10=191|8=FIX.4.2|9=56|35=0|34=4|49=FIXHUB|52=20260228-19:27:07.468|56=BROKER1|10=166|8=FIX.4.2|9=56|35=0|34=5|49=FIXHUB|52=20260228-19:27:37.467|56=BROKER1|10=169|8=FIX.4.2|9=56|35=0|34=6|49=FIXHUB|52=20260228-19:28:07.464|56=BROKER1|10=165|8=FIX.4.2|9=56|35=0|34=7|49=FIXHUB|52=20260228-19:28:37.465|56=BROKER1|10=170|