8=FIX.4.2|9=68|35=A|34=1|49=FIXHUB|52=20260228-19:21:21.614|56=CLIENT1|98=0|108=30|10=185|8=FIX.4.2|9=68|35=A|34=2|49=FIXHUB|52=20260228-19:22:03.523|56=CLIENT1|98=0|108=30|10=186|8=FIX.4.2|9=56|35=0|34=3|49=FIXHUB|52=20260228-19:22:34.283|56=CLIENT1|10=149|8=FIX.4.2|9=56|35=0|34=4|49=FIXHUB|52=20260228-19:23:04.282|56=CLIENT1|10=147|8=FIX.4.2|9=56|35=0|34=5|49=FIXHUB|52=20260228-19:23:34.282|56=CLIENT1|10=151|8=FIX.4.2|9=56|35=0|34=6|49=FIXHUB|52=20260228-19:24:04.294|56=CLIENT1|10=153|8=FIX.4.2|9=56|35=0|34=7|49=FIXHUB|52=20260228-19:24:34.291|56=CLIENT1|10=154|8=FIX.4.2|9=56|35=0|34=8|49=FIXHUB|52=20260228-19:25:04.481|56=CLIENT1|10=154|8=FIX.4.2|9=56|35=0|34=9|49=FIXHUB|52=20260228-19:25:34.480|56=CLIENT1|10=157|8=FIX.4.2|9=57|35=0|34=10|49=FIXHUB|52=20260228-19:26:04.481|56=CLIENT1|10=197|8=FIX.4.2|9=69|35=A|34=11|49=FIXHUB|52=20260228-19:26:36.711|56=CLIENT1|98=0|108=30|10=244|8=FIX.4.2|9=57|35=0|34=12|49=FIXHUB|52=20260228-19:27:07.466|56=CLIENT1|10=206|8=FIX.4.2|9=57|35=0|34=13|49=FIXHUB|52=20260228-19:27:37.465|56=CLIENT1|10=209|8=FIX.4.2|9=57|35=0|34=14|49=FIXHUB|52=20260228-19:28:07.464|56=CLIENT1|10=207|8=FIX.4.2|9=57|35=0|34=15|49=FIXHUB|52=20260228-19:28:37.465|56=CLIENT1|10=212|8=FIX.4.2|9=69|35=A|34=16|49=FIXHUB|52=20260228-19:35:09.370|56=CLIENT1|98=0|108=30|10=250|8=FIX.4.2|9=57|35=0|34=17|49=FIXHUB|52=20260228-19:35:40.106|56=CLIENT1|10=198|8=FIX.4.2|9=57|35=0|34=18|49=FIXHUB|52=20260228-19:36:10.103|56=CLIENT1|10=194|8=FIX.4.2|9=57|35=0|34=19|49=FIXHUB|52=20260228-19:36:40.103|56=CLIENT1|10=198|8=FIX.4.2|9=57|35=0|34=20|49=FIXHUB|52=20260228-19:37:10.102|56=CLIENT1|10=187|8=FIX.4.2|9=57|35=0|34=21|49=FIXHUB|52=20260228-19:37:40.103|56=CLIENT1|10=192|